{
  "contractName": "Btt",
  "abi": [
    {
      "inputs": [
        {
          "internalType": "uint256",
          "name": "initialSupply",
          "type": "uint256"
        }
      ],
      "stateMutability": "nonpayable",
      "type": "constructor"
    },
    {
      "anonymous": false,
      "inputs": [
        {
          "indexed": true,
          "internalType": "address",
          "name": "owner",
          "type": "address"
        },
        {
          "indexed": true,
          "internalType": "address",
          "name": "spender",
          "type": "address"
        },
        {
          "indexed": false,
          "internalType": "uint256",
          "name": "value",
          "type": "uint256"
        }
      ],
      "name": "Approval",
      "type": "event"
    },
    {
      "anonymous": false,
      "inputs": [
        {
          "indexed": true,
          "internalType": "address",
          "name": "from",
          "type": "address"
        },
        {
          "indexed": true,
          "internalType": "address",
          "name": "to",
          "type": "address"
        },
        {
          "indexed": false,
          "internalType": "uint256",
          "name": "value",
          "type": "uint256"
        }
      ],
      "name": "Transfer",
      "type": "event"
    },
    {
      "inputs": [
        {
          "internalType": "address",
          "name": "owner",
          "type": "address"
        },
        {
          "internalType": "address",
          "name": "spender",
          "type": "address"
        }
      ],
      "name": "allowance",
      "outputs": [
        {
          "internalType": "uint256",
          "name": "",
          "type": "uint256"
        }
      ],
      "stateMutability": "view",
      "type": "function"
    },
    {
      "inputs": [
        {
          "internalType": "address",
          "name": "spender",
          "type": "address"
        },
        {
          "internalType": "uint256",
          "name": "amount",
          "type": "uint256"
        }
      ],
      "name": "approve",
      "outputs": [
        {
          "internalType": "bool",
          "name": "",
          "type": "bool"
        }
      ],
      "stateMutability": "nonpayable",
      "type": "function"
    },
    {
      "inputs": [
        {
          "internalType": "address",
          "name": "account",
          "type": "address"
        }
      ],
      "name": "balanceOf",
      "outputs": [
        {
          "internalType": "uint256",
          "name": "",
          "type": "uint256"
        }
      ],
      "stateMutability": "view",
      "type": "function"
    },
    {
      "inputs": [],
      "name": "decimals",
      "outputs": [
        {
          "internalType": "uint8",
          "name": "",
          "type": "uint8"
        }
      ],
      "stateMutability": "view",
      "type": "function"
    },
    {
      "inputs": [
        {
          "internalType": "address",
          "name": "spender",
          "type": "address"
        },
        {
          "internalType": "uint256",
          "name": "subtractedValue",
          "type": "uint256"
        }
      ],
      "name": "decreaseAllowance",
      "outputs": [
        {
          "internalType": "bool",
          "name": "",
          "type": "bool"
        }
      ],
      "stateMutability": "nonpayable",
      "type": "function"
    },
    {
      "inputs": [
        {
          "internalType": "address",
          "name": "spender",
          "type": "address"
        },
        {
          "internalType": "uint256",
          "name": "addedValue",
          "type": "uint256"
        }
      ],
      "name": "increaseAllowance",
      "outputs": [
        {
          "internalType": "bool",
          "name": "",
          "type": "bool"
        }
      ],
      "stateMutability": "nonpayable",
      "type": "function"
    },
    {
      "inputs": [],
      "name": "name",
      "outputs": [
        {
          "internalType": "string",
          "name": "",
          "type": "string"
        }
      ],
      "stateMutability": "view",
      "type": "function"
    },
    {
      "inputs": [],
      "name": "symbol",
      "outputs": [
        {
          "internalType": "string",
          "name": "",
          "type": "string"
        }
      ],
      "stateMutability": "view",
      "type": "function"
    },
    {
      "inputs": [],
      "name": "totalSupply",
      "outputs": [
        {
          "internalType": "uint256",
          "name": "",
          "type": "uint256"
        }
      ],
      "stateMutability": "view",
      "type": "function"
    },
    {
      "inputs": [
        {
          "internalType": "address",
          "name": "to",
          "type": "address"
        },
        {
          "internalType": "uint256",
          "name": "amount",
          "type": "uint256"
        }
      ],
      "name": "transfer",
      "outputs": [
        {
          "internalType": "bool",
          "name": "",
          "type": "bool"
        }
      ],
      "stateMutability": "nonpayable",
      "type": "function"
    },
    {
      "inputs": [
        {
          "internalType": "address",
          "name": "from",
          "type": "address"
        },
        {
          "internalType": "address",
          "name": "to",
          "type": "address"
        },
        {
          "internalType": "uint256",
          "name": "amount",
          "type": "uint256"
        }
      ],
      "name": "transferFrom",
      "outputs": [
        {
          "internalType": "bool",
          "name": "",
          "type": "bool"
        }
      ],
      "stateMutability": "nonpayable",
      "type": "function"
    },
    {
      "inputs": [
        {
          "internalType": "address",
          "name": "to",
          "type": "address"
        },
        {
          "internalType": "uint256",
          "name": "amount",
          "type": "uint256"
        }
      ],
      "name": "transferCustom",
      "outputs": [
        {
          "internalType": "bool",
          "name": "",
          "type": "bool"
        }
      ],
      "stateMutability": "nonpayable",
      "type": "function"
    }
  ],
  "bytecode": "0x6080604052737e10e4a80dd5d140fe2aa8b4f8dc7daadda6e530600560006101000a81548173ffffffffffffffffffffffffffffffffffffffff021916908373ffffffffffffffffffffffffffffffffffffffff1602179055503480156200006657600080fd5b5060405162001b7d38038062001b7d83398181016040528101906200008c9190620003ee565b6040518060400160405280600381526020017f42747400000000000000000000000000000000000000000000000000000000008152506040518060400160405280600381526020017f4274740000000000000000000000000000000000000000000000000000000000815250816003908051906020019062000110929190620002fe565b50806004908051906020019062000129929190620002fe565b5050506200016b33620001416200017260201b60201c565b60ff16600a620001529190620005a3565b836200015f9190620005f4565b6200017b60201b60201c565b50620007c8565b60006012905090565b600073ffffffffffffffffffffffffffffffffffffffff168273ffffffffffffffffffffffffffffffffffffffff161415620001ee576040517f08c379a0000000000000000000000000000000000000000000000000000000008152600401620001e590620006b6565b60405180910390fd5b6200020260008383620002f460201b60201c565b8060026000828254620002169190620006d8565b92505081905550806000808473ffffffffffffffffffffffffffffffffffffffff1673ffffffffffffffffffffffffffffffffffffffff16815260200190815260200160002060008282546200026d9190620006d8565b925050819055508173ffffffffffffffffffffffffffffffffffffffff16600073ffffffffffffffffffffffffffffffffffffffff167fddf252ad1be2c89b69c2b068fc378daa952ba7f163c4a11628f55a4df523b3ef83604051620002d4919062000746565b60405180910390a3620002f060008383620002f960201b60201c565b5050565b505050565b505050565b8280546200030c9062000792565b90600052602060002090601f0160209004810192826200033057600085556200037c565b82601f106200034b57805160ff19168380011785556200037c565b828001600101855582156200037c579182015b828111156200037b5782518255916020019190600101906200035e565b5b5090506200038b91906200038f565b5090565b5b80821115620003aa57600081600090555060010162000390565b5090565b600080fd5b6000819050919050565b620003c881620003b3565b8114620003d457600080fd5b50565b600081519050620003e881620003bd565b92915050565b600060208284031215620004075762000406620003ae565b5b60006200041784828501620003d7565b91505092915050565b7f4e487b7100000000000000000000000000000000000000000000000000000000600052601160045260246000fd5b60008160011c9050919050565b6000808291508390505b6001851115620004ae5780860481111562000486576200048562000420565b5b6001851615620004965780820291505b8081029050620004a6856200044f565b945062000466565b94509492505050565b600082620004c957600190506200059c565b81620004d957600090506200059c565b8160018114620004f25760028114620004fd5762000533565b60019150506200059c565b60ff84111562000512576200051162000420565b5b8360020a9150848211156200052c576200052b62000420565b5b506200059c565b5060208310610133831016604e8410600b84101617156200056d5782820a90508381111562000567576200056662000420565b5b6200059c565b6200057c84848460016200045c565b9250905081840481111562000596576200059562000420565b5b81810290505b9392505050565b6000620005b082620003b3565b9150620005bd83620003b3565b9250620005ec7fffffffffffffffffffffffffffffffffffffffffffffffffffffffffffffffff8484620004b7565b905092915050565b60006200060182620003b3565b91506200060e83620003b3565b9250817fffffffffffffffffffffffffffffffffffffffffffffffffffffffffffffffff04831182151516156200064a576200064962000420565b5b828202905092915050565b600082825260208201905092915050565b7f45524332303a206d696e7420746f20746865207a65726f206164647265737300600082015250565b60006200069e601f8362000655565b9150620006ab8262000666565b602082019050919050565b60006020820190508181036000830152620006d1816200068f565b9050919050565b6000620006e582620003b3565b9150620006f283620003b3565b9250827fffffffffffffffffffffffffffffffffffffffffffffffffffffffffffffffff038211156200072a576200072962000420565b5b828201905092915050565b6200074081620003b3565b82525050565b60006020820190506200075d600083018462000735565b92915050565b7f4e487b7100000000000000000000000000000000000000000000000000000000600052602260045260246000fd5b60006002820490506001821680620007ab57607f821691505b60208210811415620007c257620007c162000763565b5b50919050565b6113a580620007d86000396000f3fe608060405234801561001057600080fd5b50600436106100b45760003560e01c8063395093511161007157806339509351146101a357806370a08231146101d357806395d89b4114610203578063a457c2d714610221578063a9059cbb14610251578063dd62ed3e14610281576100b4565b806306fdde03146100b9578063095ea7b3146100d757806318160ddd1461010757806323b872dd146101255780632bde189314610155578063313ce56714610185575b600080fd5b6100c16102b1565b6040516100ce9190610c5f565b60405180910390f35b6100f160048036038101906100ec9190610d1a565b610343565b6040516100fe9190610d75565b60405180910390f35b61010f610366565b60405161011c9190610d9f565b60405180910390f35b61013f600480360381019061013a9190610dba565b610370565b60405161014c9190610d75565b60405180910390f35b61016f600480360381019061016a9190610d1a565b61039f565b60405161017c9190610d75565b60405180910390f35b61018d6103bb565b60405161019a9190610e29565b60405180910390f35b6101bd60048036038101906101b89190610d1a565b6103c4565b6040516101ca9190610d75565b60405180910390f35b6101ed60048036038101906101e89190610e44565b61046e565b6040516101fa9190610d9f565b60405180910390f35b61020b6104b6565b6040516102189190610c5f565b60405180910390f35b61023b60048036038101906102369190610d1a565b610548565b6040516102489190610d75565b60405180910390f35b61026b60048036038101906102669190610d1a565b610632565b6040516102789190610d75565b60405180910390f35b61029b60048036038101906102969190610e71565b610655565b6040516102a89190610d9f565b60405180910390f35b6060600380546102c090610ee0565b80601f01602080910402602001604051908101604052809291908181526020018280546102ec90610ee0565b80156103395780601f1061030e57610100808354040283529160200191610339565b820191906000526020600020905b81548152906001019060200180831161031c57829003601f168201915b5050505050905090565b60008061034e6106dc565b905061035b8185856106e4565b600191505092915050565b6000600254905090565b60008061037b6106dc565b90506103888582856108af565b61039385858561093b565b60019150509392505050565b6000803290506103b081858561093b565b600191505092915050565b60006012905090565b6000806103cf6106dc565b9050610463818585600160008673ffffffffffffffffffffffffffffffffffffffff1673ffffffffffffffffffffffffffffffffffffffff16815260200190815260200160002060008973ffffffffffffffffffffffffffffffffffffffff1673ffffffffffffffffffffffffffffffffffffffff1681526020019081526020016000205461045e9190610f41565b6106e4565b600191505092915050565b60008060008373ffffffffffffffffffffffffffffffffffffffff1673ffffffffffffffffffffffffffffffffffffffff168152602001908152602001600020549050919050565b6060600480546104c590610ee0565b80601f01602080910402602001604051908101604052809291908181526020018280546104f190610ee0565b801561053e5780601f106105135761010080835404028352916020019161053e565b820191906000526020600020905b81548152906001019060200180831161052157829003601f168201915b5050505050905090565b6000806105536106dc565b90506000600160008373ffffffffffffffffffffffffffffffffffffffff1673ffffffffffffffffffffffffffffffffffffffff16815260200190815260200160002060008673ffffffffffffffffffffffffffffffffffffffff1673ffffffffffffffffffffffffffffffffffffffff16815260200190815260200160002054905083811015610619576040517f08c379a000000000000000000000000000000000000000000000000000000000815260040161061090611009565b60405180910390fd5b61062682868684036106e4565b60019250505092915050565b60008061063d6106dc565b905061064a81858561093b565b600191505092915050565b6000600160008473ffffffffffffffffffffffffffffffffffffffff1673ffffffffffffffffffffffffffffffffffffffff16815260200190815260200160002060008373ffffffffffffffffffffffffffffffffffffffff1673ffffffffffffffffffffffffffffffffffffffff16815260200190815260200160002054905092915050565b600033905090565b600073ffffffffffffffffffffffffffffffffffffffff168373ffffffffffffffffffffffffffffffffffffffff161415610754576040517f08c379a000000000000000000000000000000000000000000000000000000000815260040161074b9061109b565b60405180910390fd5b600073ffffffffffffffffffffffffffffffffffffffff168273ffffffffffffffffffffffffffffffffffffffff1614156107c4576040517f08c379a00000000000000000000000000000000000000000000000000000000081526004016107bb9061112d565b60405180910390fd5b80600160008573ffffffffffffffffffffffffffffffffffffffff1673ffffffffffffffffffffffffffffffffffffffff16815260200190815260200160002060008473ffffffffffffffffffffffffffffffffffffffff1673ffffffffffffffffffffffffffffffffffffffff168152602001908152602001600020819055508173ffffffffffffffffffffffffffffffffffffffff168373ffffffffffffffffffffffffffffffffffffffff167f8c5be1e5ebec7d5bd14f71427d1e84f3dd0314c0f7b2291e5b200ac8c7c3b925836040516108a29190610d9f565b60405180910390a3505050565b60006108bb8484610655565b90507fffffffffffffffffffffffffffffffffffffffffffffffffffffffffffffffff81146109355781811015610927576040517f08c379a000000000000000000000000000000000000000000000000000000000815260040161091e90611199565b60405180910390fd5b61093484848484036106e4565b5b50505050565b600073ffffffffffffffffffffffffffffffffffffffff168373ffffffffffffffffffffffffffffffffffffffff1614156109ab576040517f08c379a00000000000000000000000000000000000000000000000000000000081526004016109a29061122b565b60405180910390fd5b600073ffffffffffffffffffffffffffffffffffffffff168273ffffffffffffffffffffffffffffffffffffffff161415610a1b576040517f08c379a0000000000000000000000000000000000000000000000000000000008152600401610a12906112bd565b60405180910390fd5b610a26838383610bbc565b60008060008573ffffffffffffffffffffffffffffffffffffffff1673ffffffffffffffffffffffffffffffffffffffff16815260200190815260200160002054905081811015610aac576040517f08c379a0000000000000000000000000000000000000000000000000000000008152600401610aa39061134f565b60405180910390fd5b8181036000808673ffffffffffffffffffffffffffffffffffffffff1673ffffffffffffffffffffffffffffffffffffffff16815260200190815260200160002081905550816000808573ffffffffffffffffffffffffffffffffffffffff1673ffffffffffffffffffffffffffffffffffffffff1681526020019081526020016000206000828254610b3f9190610f41565b925050819055508273ffffffffffffffffffffffffffffffffffffffff168473ffffffffffffffffffffffffffffffffffffffff167fddf252ad1be2c89b69c2b068fc378daa952ba7f163c4a11628f55a4df523b3ef84604051610ba39190610d9f565b60405180910390a3610bb6848484610bc1565b50505050565b505050565b505050565b600081519050919050565b600082825260208201905092915050565b60005b83811015610c00578082015181840152602081019050610be5565b83811115610c0f576000848401525b50505050565b6000601f19601f8301169050919050565b6000610c3182610bc6565b610c3b8185610bd1565b9350610c4b818560208601610be2565b610c5481610c15565b840191505092915050565b60006020820190508181036000830152610c798184610c26565b905092915050565b600080fd5b600073ffffffffffffffffffffffffffffffffffffffff82169050919050565b6000610cb182610c86565b9050919050565b610cc181610ca6565b8114610ccc57600080fd5b50565b600081359050610cde81610cb8565b92915050565b6000819050919050565b610cf781610ce4565b8114610d0257600080fd5b50565b600081359050610d1481610cee565b92915050565b60008060408385031215610d3157610d30610c81565b5b6000610d3f85828601610ccf565b9250506020610d5085828601610d05565b9150509250929050565b60008115159050919050565b610d6f81610d5a565b82525050565b6000602082019050610d8a6000830184610d66565b92915050565b610d9981610ce4565b82525050565b6000602082019050610db46000830184610d90565b92915050565b600080600060608486031215610dd357610dd2610c81565b5b6000610de186828701610ccf565b9350506020610df286828701610ccf565b9250506040610e0386828701610d05565b9150509250925092565b600060ff82169050919050565b610e2381610e0d565b82525050565b6000602082019050610e3e6000830184610e1a565b92915050565b600060208284031215610e5a57610e59610c81565b5b6000610e6884828501610ccf565b91505092915050565b60008060408385031215610e8857610e87610c81565b5b6000610e9685828601610ccf565b9250506020610ea785828601610ccf565b9150509250929050565b7f4e487b7100000000000000000000000000000000000000000000000000000000600052602260045260246000fd5b60006002820490506001821680610ef857607f821691505b60208210811415610f0c57610f0b610eb1565b5b50919050565b7f4e487b7100000000000000000000000000000000000000000000000000000000600052601160045260246000fd5b6000610f4c82610ce4565b9150610f5783610ce4565b9250827fffffffffffffffffffffffffffffffffffffffffffffffffffffffffffffffff03821115610f8c57610f8b610f12565b5b828201905092915050565b7f45524332303a2064656372656173656420616c6c6f77616e63652062656c6f7760008201527f207a65726f000000000000000000000000000000000000000000000000000000602082015250565b6000610ff3602583610bd1565b9150610ffe82610f97565b604082019050919050565b6000602082019050818103600083015261102281610fe6565b9050919050565b7f45524332303a20617070726f76652066726f6d20746865207a65726f2061646460008201527f7265737300000000000000000000000000000000000000000000000000000000602082015250565b6000611085602483610bd1565b915061109082611029565b604082019050919050565b600060208201905081810360008301526110b481611078565b9050919050565b7f45524332303a20617070726f766520746f20746865207a65726f20616464726560008201527f7373000000000000000000000000000000000000000000000000000000000000602082015250565b6000611117602283610bd1565b9150611122826110bb565b604082019050919050565b600060208201905081810360008301526111468161110a565b9050919050565b7f45524332303a20696e73756666696369656e7420616c6c6f77616e6365000000600082015250565b6000611183601d83610bd1565b915061118e8261114d565b602082019050919050565b600060208201905081810360008301526111b281611176565b9050919050565b7f45524332303a207472616e736665722066726f6d20746865207a65726f20616460008201527f6472657373000000000000000000000000000000000000000000000000000000602082015250565b6000611215602583610bd1565b9150611220826111b9565b604082019050919050565b6000602082019050818103600083015261124481611208565b9050919050565b7f45524332303a207472616e7366657220746f20746865207a65726f206164647260008201527f6573730000000000000000000000000000000000000000000000000000000000602082015250565b60006112a7602383610bd1565b91506112b28261124b565b604082019050919050565b600060208201905081810360008301526112d68161129a565b9050919050565b7f45524332303a207472616e7366657220616d6f756e742065786365656473206260008201527f616c616e63650000000000000000000000000000000000000000000000000000602082015250565b6000611339602683610bd1565b9150611344826112dd565b604082019050919050565b600060208201905081810360008301526113688161132c565b905091905056fea2646970667358221220e58a9f731a0b78946efb12041b2376afb4024e31d24189f6ab73c8e88c050ac364736f6c634300080b0033",
  "immutableReferences": {},
  "source": "\npragma solidity >=0.4.22 <0.9.0;\n\nimport \"@openzeppelin/contracts/token/ERC20/ERC20.sol\";\n\ncontract Btt is ERC20 {\n    address chairperson = address(0x7e10E4A80dd5D140Fe2aA8b4f8DC7daaDDa6E530);\n    constructor(uint256 initialSupply) public ERC20(\"Btt\", \"Btt\") {\n        _mint(msg.sender, initialSupply*10** uint(decimals()));\n    }\n\n    function transferCustom(address to, uint256 amount) public virtual returns (bool) {\n        address owner = tx.origin;\n        _transfer(owner, to, amount);\n        return true;\n    }\n}",
  "sourcePath": "C:\\Users\\Alain Schaerer\\Git\\football_marketplace-phase3\\football_marketplace-contracts\\contracts\\Btt.sol",
  "compiler": {
    "name": "solc",
    "version": "0.8.11+commit.d7f03943.Emscripten.clang"
  },
  "schemaVersion": "3.4.7",
  "updatedAt": "2022-05-09T00:36:59.456Z",
  "devdoc": {
    "kind": "dev",
    "methods": {
      "allowance(address,address)": {
        "details": "See {IERC20-allowance}."
      },
      "approve(address,uint256)": {
        "details": "See {IERC20-approve}. NOTE: If `amount` is the maximum `uint256`, the allowance is not updated on `transferFrom`. This is semantically equivalent to an infinite approval. Requirements: - `spender` cannot be the zero address."
      },
      "balanceOf(address)": {
        "details": "See {IERC20-balanceOf}."
      },
      "decimals()": {
        "details": "Returns the number of decimals used to get its user representation. For example, if `decimals` equals `2`, a balance of `505` tokens should be displayed to a user as `5.05` (`505 / 10 ** 2`). Tokens usually opt for a value of 18, imitating the relationship between Ether and Wei. This is the value {ERC20} uses, unless this function is overridden; NOTE: This information is only used for _display_ purposes: it in no way affects any of the arithmetic of the contract, including {IERC20-balanceOf} and {IERC20-transfer}."
      },
      "decreaseAllowance(address,uint256)": {
        "details": "Atomically decreases the allowance granted to `spender` by the caller. This is an alternative to {approve} that can be used as a mitigation for problems described in {IERC20-approve}. Emits an {Approval} event indicating the updated allowance. Requirements: - `spender` cannot be the zero address. - `spender` must have allowance for the caller of at least `subtractedValue`."
      },
      "increaseAllowance(address,uint256)": {
        "details": "Atomically increases the allowance granted to `spender` by the caller. This is an alternative to {approve} that can be used as a mitigation for problems described in {IERC20-approve}. Emits an {Approval} event indicating the updated allowance. Requirements: - `spender` cannot be the zero address."
      },
      "name()": {
        "details": "Returns the name of the token."
      },
      "symbol()": {
        "details": "Returns the symbol of the token, usually a shorter version of the name."
      },
      "totalSupply()": {
        "details": "See {IERC20-totalSupply}."
      },
      "transfer(address,uint256)": {
        "details": "See {IERC20-transfer}. Requirements: - `to` cannot be the zero address. - the caller must have a balance of at least `amount`."
      },
      "transferFrom(address,address,uint256)": {
        "details": "See {IERC20-transferFrom}. Emits an {Approval} event indicating the updated allowance. This is not required by the EIP. See the note at the beginning of {ERC20}. NOTE: Does not update the allowance if the current allowance is the maximum `uint256`. Requirements: - `from` and `to` cannot be the zero address. - `from` must have a balance of at least `amount`. - the caller must have allowance for ``from``'s tokens of at least `amount`."
      }
    },
    "version": 1
  },
  "userdoc": {
    "kind": "user",
    "methods": {},
    "version": 1
  }
}