{
  "contractName": "Players",
  "abi": [
    {
      "inputs": [],
      "stateMutability": "payable",
      "type": "constructor",
      "payable": true
    },
    {
      "inputs": [],
      "name": "register",
      "outputs": [],
      "stateMutability": "payable",
      "type": "function",
      "payable": true
    },
    {
      "inputs": [
        {
          "internalType": "address payable",
          "name": "toRegister",
          "type": "address"
        }
      ],
      "name": "registerCoach",
      "outputs": [],
      "stateMutability": "payable",
      "type": "function",
      "payable": true
    },
    {
      "inputs": [],
      "name": "unRegister",
      "outputs": [],
      "stateMutability": "payable",
      "type": "function",
      "payable": true
    },
    {
      "inputs": [],
      "name": "register_service",
      "outputs": [],
      "stateMutability": "nonpayable",
      "type": "function"
    },
    {
      "inputs": [],
      "name": "submit_service",
      "outputs": [],
      "stateMutability": "nonpayable",
      "type": "function"
    },
    {
      "inputs": [
        {
          "internalType": "address payable",
          "name": "toAddress",
          "type": "address"
        }
      ],
      "name": "sendMoney",
      "outputs": [],
      "stateMutability": "payable",
      "type": "function",
      "payable": true
    },
    {
      "inputs": [
        {
          "internalType": "address",
          "name": "a",
          "type": "address"
        }
      ],
      "name": "isRegistered",
      "outputs": [
        {
          "internalType": "bool",
          "name": "",
          "type": "bool"
        }
      ],
      "stateMutability": "view",
      "type": "function",
      "constant": true
    },
    {
      "inputs": [
        {
          "internalType": "address",
          "name": "a",
          "type": "address"
        }
      ],
      "name": "isCoachView",
      "outputs": [
        {
          "internalType": "bool",
          "name": "",
          "type": "bool"
        }
      ],
      "stateMutability": "view",
      "type": "function",
      "constant": true
    },
    {
      "inputs": [
        {
          "internalType": "address",
          "name": "a",
          "type": "address"
        }
      ],
      "name": "isChairperson",
      "outputs": [
        {
          "internalType": "bool",
          "name": "",
          "type": "bool"
        }
      ],
      "stateMutability": "view",
      "type": "function",
      "constant": true
    }
  ],
  "bytecode": "0x608060405273331f839174981d1bca828131ecfb2a07e1871dbb6000806101000a81548173ffffffffffffffffffffffffffffffffffffffff021916908373ffffffffffffffffffffffffffffffffffffffff160217905550610a38806100676000396000f3fe6080604052600436106100865760003560e01c8063a41f23f911610059578063a41f23f9146100f8578063c3c5a54714610114578063db643ae214610151578063f060769714610168578063fe73b5b31461017f57610086565b80631aa3a0081461008b57806326d7b3b414610095578063338ccd781461009f5780639cacb261146100bb575b600080fd5b6100936101bc565b005b61009d6102a8565b005b6100b960048036038101906100b49190610871565b61033a565b005b3480156100c757600080fd5b506100e260048036038101906100dd91906108dc565b610544565b6040516100ef9190610924565b60405180910390f35b610112600480360381019061010d9190610871565b61059d565b005b34801561012057600080fd5b5061013b600480360381019061013691906108dc565b6106dc565b6040516101489190610924565b60405180910390f35b34801561015d57600080fd5b50610166610727565b005b34801561017457600080fd5b5061017d610774565b005b34801561018b57600080fd5b506101a660048036038101906101a191906108dc565b6107c2565b6040516101b39190610924565b60405180910390f35b60003390503373ffffffffffffffffffffffffffffffffffffffff1631600360008373ffffffffffffffffffffffffffffffffffffffff1673ffffffffffffffffffffffffffffffffffffffff1681526020019081526020016000208190555060018060008373ffffffffffffffffffffffffffffffffffffffff1673ffffffffffffffffffffffffffffffffffffffff168152602001908152602001600020819055506000600260008373ffffffffffffffffffffffffffffffffffffffff1673ffffffffffffffffffffffffffffffffffffffff1681526020019081526020016000208190555050565b60003390506000600160008373ffffffffffffffffffffffffffffffffffffffff1673ffffffffffffffffffffffffffffffffffffffff168152602001908152602001600020819055506000600260008373ffffffffffffffffffffffffffffffffffffffff1673ffffffffffffffffffffffffffffffffffffffff1681526020019081526020016000208190555050565b60018060003373ffffffffffffffffffffffffffffffffffffffff1673ffffffffffffffffffffffffffffffffffffffff168152602001908152602001600020541461038557600080fd5b8060018060008373ffffffffffffffffffffffffffffffffffffffff1673ffffffffffffffffffffffffffffffffffffffff16815260200190815260200160002054146103d157600080fd5b6000339050600034905080600360008673ffffffffffffffffffffffffffffffffffffffff1673ffffffffffffffffffffffffffffffffffffffff168152602001908152602001600020546104269190610978565b600360008673ffffffffffffffffffffffffffffffffffffffff1673ffffffffffffffffffffffffffffffffffffffff1681526020019081526020016000208190555080600360008473ffffffffffffffffffffffffffffffffffffffff1673ffffffffffffffffffffffffffffffffffffffff168152602001908152602001600020546104b491906109ce565b600360008473ffffffffffffffffffffffffffffffffffffffff1673ffffffffffffffffffffffffffffffffffffffff168152602001908152602001600020819055508373ffffffffffffffffffffffffffffffffffffffff166108fc829081150290604051600060405180830381858888f1935050505015801561053d573d6000803e3d6000fd5b5050505050565b60008060009054906101000a900473ffffffffffffffffffffffffffffffffffffffff1673ffffffffffffffffffffffffffffffffffffffff168273ffffffffffffffffffffffffffffffffffffffff16149050919050565b60008054906101000a900473ffffffffffffffffffffffffffffffffffffffff1673ffffffffffffffffffffffffffffffffffffffff163373ffffffffffffffffffffffffffffffffffffffff16146105f557600080fd5b3373ffffffffffffffffffffffffffffffffffffffff1631600360008373ffffffffffffffffffffffffffffffffffffffff1673ffffffffffffffffffffffffffffffffffffffff1681526020019081526020016000208190555060018060008373ffffffffffffffffffffffffffffffffffffffff1673ffffffffffffffffffffffffffffffffffffffff168152602001908152602001600020819055506001600260008373ffffffffffffffffffffffffffffffffffffffff1673ffffffffffffffffffffffffffffffffffffffff1681526020019081526020016000208190555050565b600060018060008473ffffffffffffffffffffffffffffffffffffffff1673ffffffffffffffffffffffffffffffffffffffff16815260200190815260200160002054149050919050565b60018060003373ffffffffffffffffffffffffffffffffffffffff1673ffffffffffffffffffffffffffffffffffffffff168152602001908152602001600020541461077257600080fd5b565b6001600260003373ffffffffffffffffffffffffffffffffffffffff1673ffffffffffffffffffffffffffffffffffffffff16815260200190815260200160002054146107c057600080fd5b565b60006001600260008473ffffffffffffffffffffffffffffffffffffffff1673ffffffffffffffffffffffffffffffffffffffff16815260200190815260200160002054149050919050565b600080fd5b600073ffffffffffffffffffffffffffffffffffffffff82169050919050565b600061083e82610813565b9050919050565b61084e81610833565b811461085957600080fd5b50565b60008135905061086b81610845565b92915050565b6000602082840312156108875761088661080e565b5b60006108958482850161085c565b91505092915050565b60006108a982610813565b9050919050565b6108b98161089e565b81146108c457600080fd5b50565b6000813590506108d6816108b0565b92915050565b6000602082840312156108f2576108f161080e565b5b6000610900848285016108c7565b91505092915050565b60008115159050919050565b61091e81610909565b82525050565b60006020820190506109396000830184610915565b92915050565b6000819050919050565b7f4e487b7100000000000000000000000000000000000000000000000000000000600052601160045260246000fd5b60006109838261093f565b915061098e8361093f565b9250827fffffffffffffffffffffffffffffffffffffffffffffffffffffffffffffffff038211156109c3576109c2610949565b5b828201905092915050565b60006109d98261093f565b91506109e48361093f565b9250828210156109f7576109f6610949565b5b82820390509291505056fea26469706673582212200ce6d687a85d48a1325291534c8096bcf1e980cc18a28aa036a3af49e5891d1364736f6c634300080b0033",
  "immutableReferences": {},
  "source": "// SPDX-License-Identifier: GPL-3.0\r\n\r\npragma solidity >=0.4.22 <0.9.0;\r\n\r\ncontract Players{\r\n   // Set the address of the chairperson here\r\n     address payable chairperson= payable(0x331f839174981d1BcA828131ecFB2A07E1871dBb);\r\n      mapping(address =>uint) member;\r\n    mapping(address=>uint) isCoach;\r\n    mapping(address=>uint) players;\r\n\r\n  \r\n\r\n      modifier onlyMember{ \r\n         require(member[msg.sender]==1);\r\n            _;\r\n      }\r\n      // checks whether the address that the sender wants to send money to is also a member\r\n      modifier onlyMemberTo(address payable toAddress){ \r\n         require(member[toAddress]==1);\r\n            _;\r\n      }\r\n  \r\n\r\n    modifier onlyCoach{\r\n        require(isCoach[msg.sender]==1);\r\n        _;\r\n    }\r\n\r\n    modifier onlyChairperson{\r\n        require(msg.sender == chairperson);\r\n        _;\r\n    }\r\n\r\n    constructor () public payable { \r\n//         chairperson= payable(msg.sender);\r\n//\r\n//         players[chairperson] = msg.sender.balance;\r\n        // chairperson.transfer(msg.value);\r\n         //console.log(\"System has been initiated with chairperson: \", chairperson, \" with balance \", msg.sender.balance);\r\n        }\r\n     function register () public payable{ \r\n        address payable ad = payable(msg.sender);\r\n        players[ad] = msg.sender.balance;\r\n        member[ad] = 1;\r\n         isCoach[ad]=0;\r\n     }\r\n    function registerCoach (address payable toRegister) onlyChairperson public payable{\r\n        players[toRegister] = msg.sender.balance;\r\n        member[toRegister] = 1;\r\n        isCoach[toRegister]=1;\r\n    }\r\n     function unRegister() public payable{\r\n         address payable ad = payable(msg.sender);\r\n         member[ad] = 0;\r\n         isCoach[ad]=0;\r\n     }\r\n   //   function register_service(service memory s, string memory playerName) onlyMember beYourSelf(playerName) public{\r\n   //      address ad = playerToAdress[playerName];\r\n   //      players[ad].services.push(s);\r\n   //      console.log(\"Address \", ad, \" registred the service called \", s.name);\r\n   //   }\r\n     function register_service() onlyMember public{\r\n        // We will only verify whether the sender address can register a service. Only modifier onlyMember() is necessary for that\r\n     }\r\n    function submit_service() onlyCoach public {\r\n\r\n    }\r\n//     function unRegisterService() onlyMember public {\r\n//         //same\r\n//     }\r\n\r\n//      function editService() onlyMember public {\r\n//         //same\r\n//      }\r\n//      function rateService() onlyMember public {\r\n//         //same\r\n//\r\n//      }\r\n      \r\n     function sendMoney(address payable toAddress) onlyMember onlyMemberTo(toAddress) payable public {\r\n         address fromAddress = msg.sender;\r\n         uint amt = msg.value;\r\n         players[toAddress] = players[toAddress] + amt;\r\n         players[fromAddress] = players[fromAddress] - amt;\r\n         toAddress.transfer(amt); \r\n     }\r\n\r\n   function isRegistered (address a) public view returns(bool){\r\n         return (member[a] == 1);\r\n   }\r\n    function isCoachView (address a) public view returns(bool){\r\n        return (isCoach[a]==1);\r\n    }\r\n    function isChairperson (address a) public view returns(bool){\r\n        return (payable(a) == chairperson);\r\n    }\r\n\r\n    \r\n}",
  "sourcePath": "C:\\Users\\Alain Schaerer\\Git\\football_marketplace - Copy\\football_marketplace-contracts\\contracts\\Players.sol",
  "compiler": {
    "name": "solc",
    "version": "0.8.11+commit.d7f03943.Emscripten.clang"
  },
  "schemaVersion": "3.4.5",
  "updatedAt": "2022-04-08T01:37:22.381Z",
  "networkType": "ethereum",
  "devdoc": {
    "kind": "dev",
    "methods": {},
    "version": 1
  },
  "userdoc": {
    "kind": "user",
    "methods": {},
    "version": 1
  }
}