{
  "contractName": "Players",
  "abi": [
    {
      "inputs": [],
      "stateMutability": "payable",
      "type": "constructor",
      "payable": true
    },
    {
      "inputs": [
        {
          "internalType": "address",
          "name": "",
          "type": "address"
        }
      ],
      "name": "players",
      "outputs": [
        {
          "internalType": "uint256",
          "name": "",
          "type": "uint256"
        }
      ],
      "stateMutability": "view",
      "type": "function",
      "constant": true
    },
    {
      "inputs": [],
      "name": "register",
      "outputs": [],
      "stateMutability": "payable",
      "type": "function",
      "payable": true
    },
    {
      "inputs": [],
      "name": "registerCoach",
      "outputs": [],
      "stateMutability": "payable",
      "type": "function",
      "payable": true
    },
    {
      "inputs": [],
      "name": "unRegister",
      "outputs": [],
      "stateMutability": "payable",
      "type": "function",
      "payable": true
    },
    {
      "inputs": [],
      "name": "register_service",
      "outputs": [],
      "stateMutability": "nonpayable",
      "type": "function"
    },
    {
      "inputs": [],
      "name": "submit_service",
      "outputs": [],
      "stateMutability": "nonpayable",
      "type": "function"
    },
    {
      "inputs": [],
      "name": "unRegisterService",
      "outputs": [],
      "stateMutability": "nonpayable",
      "type": "function"
    },
    {
      "inputs": [],
      "name": "editService",
      "outputs": [],
      "stateMutability": "nonpayable",
      "type": "function"
    },
    {
      "inputs": [],
      "name": "rateService",
      "outputs": [],
      "stateMutability": "nonpayable",
      "type": "function"
    },
    {
      "inputs": [
        {
          "internalType": "address payable",
          "name": "toAddress",
          "type": "address"
        }
      ],
      "name": "sendMoney",
      "outputs": [],
      "stateMutability": "payable",
      "type": "function",
      "payable": true
    },
    {
      "inputs": [
        {
          "internalType": "address",
          "name": "a",
          "type": "address"
        }
      ],
      "name": "isRegistered",
      "outputs": [
        {
          "internalType": "bool",
          "name": "",
          "type": "bool"
        }
      ],
      "stateMutability": "view",
      "type": "function",
      "constant": true
    },
    {
      "inputs": [
        {
          "internalType": "address",
          "name": "a",
          "type": "address"
        }
      ],
      "name": "isCoachView",
      "outputs": [
        {
          "internalType": "bool",
          "name": "",
          "type": "bool"
        }
      ],
      "stateMutability": "view",
      "type": "function",
      "constant": true
    },
    {
      "inputs": [
        {
          "internalType": "address",
          "name": "a",
          "type": "address"
        }
      ],
      "name": "print",
      "outputs": [],
      "stateMutability": "view",
      "type": "function",
      "constant": true
    }
  ],
  "bytecode": "0x6080604052336000806101000a81548173ffffffffffffffffffffffffffffffffffffffff021916908373ffffffffffffffffffffffffffffffffffffffff1602179055503373ffffffffffffffffffffffffffffffffffffffff1631600160008060009054906101000a900473ffffffffffffffffffffffffffffffffffffffff1673ffffffffffffffffffffffffffffffffffffffff1673ffffffffffffffffffffffffffffffffffffffff16815260200190815260200160002081905550610b9e806100cf6000396000f3fe6080604052600436106100c25760003560e01c80632a6f6d121161007f578063db643ae211610059578063db643ae2146101ac578063e2eb41ff146101c3578063f060769714610200578063fe73b5b314610217576100c2565b80632a6f6d121461013c578063338ccd7814610153578063c3c5a5471461016f576100c2565b80631aa3a008146100c75780631e46cd84146100d15780631ffd6518146100e857806322ea29ec146100f257806324d427a91461010957806326d7b3b414610132575b600080fd5b6100cf610254565b005b3480156100dd57600080fd5b506100e6610341565b005b6100f061038f565b005b3480156100fe57600080fd5b5061010761047c565b005b34801561011557600080fd5b50610130600480360381019061012b91906109ad565b6104ca565b005b61013a610512565b005b34801561014857600080fd5b506101516105a4565b005b61016d60048036038101906101689190610a18565b6105f2565b005b34801561017b57600080fd5b50610196600480360381019061019191906109ad565b6107fe565b6040516101a39190610a60565b60405180910390f35b3480156101b857600080fd5b506101c161084a565b005b3480156101cf57600080fd5b506101ea60048036038101906101e591906109ad565b610898565b6040516101f79190610a94565b60405180910390f35b34801561020c57600080fd5b506102156108b0565b005b34801561022357600080fd5b5061023e600480360381019061023991906109ad565b6108fe565b60405161024b9190610a60565b60405180910390f35b60003390503373ffffffffffffffffffffffffffffffffffffffff1631600160008373ffffffffffffffffffffffffffffffffffffffff1673ffffffffffffffffffffffffffffffffffffffff168152602001908152602001600020819055506001600260008373ffffffffffffffffffffffffffffffffffffffff1673ffffffffffffffffffffffffffffffffffffffff168152602001908152602001600020819055506000600360008373ffffffffffffffffffffffffffffffffffffffff1673ffffffffffffffffffffffffffffffffffffffff1681526020019081526020016000208190555050565b6001600260003373ffffffffffffffffffffffffffffffffffffffff1673ffffffffffffffffffffffffffffffffffffffff168152602001908152602001600020541461038d57600080fd5b565b60003390503373ffffffffffffffffffffffffffffffffffffffff1631600160008373ffffffffffffffffffffffffffffffffffffffff1673ffffffffffffffffffffffffffffffffffffffff168152602001908152602001600020819055506001600260008373ffffffffffffffffffffffffffffffffffffffff1673ffffffffffffffffffffffffffffffffffffffff168152602001908152602001600020819055506001600360008373ffffffffffffffffffffffffffffffffffffffff1673ffffffffffffffffffffffffffffffffffffffff1681526020019081526020016000208190555050565b6001600260003373ffffffffffffffffffffffffffffffffffffffff1673ffffffffffffffffffffffffffffffffffffffff16815260200190815260200160002054146104c857600080fd5b565b6000600160008373ffffffffffffffffffffffffffffffffffffffff1673ffffffffffffffffffffffffffffffffffffffff1681526020019081526020016000205490505050565b60003390506000600260008373ffffffffffffffffffffffffffffffffffffffff1673ffffffffffffffffffffffffffffffffffffffff168152602001908152602001600020819055506000600360008373ffffffffffffffffffffffffffffffffffffffff1673ffffffffffffffffffffffffffffffffffffffff1681526020019081526020016000208190555050565b6001600260003373ffffffffffffffffffffffffffffffffffffffff1673ffffffffffffffffffffffffffffffffffffffff16815260200190815260200160002054146105f057600080fd5b565b6001600260003373ffffffffffffffffffffffffffffffffffffffff1673ffffffffffffffffffffffffffffffffffffffff168152602001908152602001600020541461063e57600080fd5b806001600260008373ffffffffffffffffffffffffffffffffffffffff1673ffffffffffffffffffffffffffffffffffffffff168152602001908152602001600020541461068b57600080fd5b6000339050600034905080600160008673ffffffffffffffffffffffffffffffffffffffff1673ffffffffffffffffffffffffffffffffffffffff168152602001908152602001600020546106e09190610ade565b600160008673ffffffffffffffffffffffffffffffffffffffff1673ffffffffffffffffffffffffffffffffffffffff1681526020019081526020016000208190555080600160008473ffffffffffffffffffffffffffffffffffffffff1673ffffffffffffffffffffffffffffffffffffffff1681526020019081526020016000205461076e9190610b34565b600160008473ffffffffffffffffffffffffffffffffffffffff1673ffffffffffffffffffffffffffffffffffffffff168152602001908152602001600020819055508373ffffffffffffffffffffffffffffffffffffffff166108fc829081150290604051600060405180830381858888f193505050501580156107f7573d6000803e3d6000fd5b5050505050565b60006001600260008473ffffffffffffffffffffffffffffffffffffffff1673ffffffffffffffffffffffffffffffffffffffff16815260200190815260200160002054149050919050565b6001600260003373ffffffffffffffffffffffffffffffffffffffff1673ffffffffffffffffffffffffffffffffffffffff168152602001908152602001600020541461089657600080fd5b565b60016020528060005260406000206000915090505481565b6001600360003373ffffffffffffffffffffffffffffffffffffffff1673ffffffffffffffffffffffffffffffffffffffff16815260200190815260200160002054146108fc57600080fd5b565b60006001600360008473ffffffffffffffffffffffffffffffffffffffff1673ffffffffffffffffffffffffffffffffffffffff16815260200190815260200160002054149050919050565b600080fd5b600073ffffffffffffffffffffffffffffffffffffffff82169050919050565b600061097a8261094f565b9050919050565b61098a8161096f565b811461099557600080fd5b50565b6000813590506109a781610981565b92915050565b6000602082840312156109c3576109c261094a565b5b60006109d184828501610998565b91505092915050565b60006109e58261094f565b9050919050565b6109f5816109da565b8114610a0057600080fd5b50565b600081359050610a12816109ec565b92915050565b600060208284031215610a2e57610a2d61094a565b5b6000610a3c84828501610a03565b91505092915050565b60008115159050919050565b610a5a81610a45565b82525050565b6000602082019050610a756000830184610a51565b92915050565b6000819050919050565b610a8e81610a7b565b82525050565b6000602082019050610aa96000830184610a85565b92915050565b7f4e487b7100000000000000000000000000000000000000000000000000000000600052601160045260246000fd5b6000610ae982610a7b565b9150610af483610a7b565b9250827fffffffffffffffffffffffffffffffffffffffffffffffffffffffffffffffff03821115610b2957610b28610aaf565b5b828201905092915050565b6000610b3f82610a7b565b9150610b4a83610a7b565b925082821015610b5d57610b5c610aaf565b5b82820390509291505056fea264697066735822122088d9df3854c42da489e5ab8bd9f590a47383aeb1ed9555bf786816c6f7af6b4a64736f6c634300080b0033",
  "immutableReferences": {},
  "source": "// SPDX-License-Identifier: GPL-3.0\r\n\r\npragma solidity >=0.4.22 <0.9.0;\r\n\r\ncontract Players{\r\n     address payable chairperson;\r\n      mapping (address=>uint) public players; // maps player to its balance\r\n      mapping(address =>uint) member;\r\n    mapping(address=>uint) isCoach;\r\n\r\n  \r\n\r\n      modifier onlyMember{ \r\n         require(member[msg.sender]==1);\r\n            _;\r\n      }\r\n      // checks whether the address that the sender wants to send money to is also a member\r\n      modifier onlyMemberTo(address payable toAddress){ \r\n         require(member[toAddress]==1);\r\n            _;\r\n      }\r\n   \r\n      modifier beYourSelfViaAddress (address _ad){\r\n         require(msg.sender == _ad);\r\n         _;\r\n      }\r\n\r\n    modifier onlyCoach{\r\n        require(isCoach[msg.sender]==1);\r\n        _;\r\n    }\r\n    constructor () public payable { \r\n         chairperson= payable(msg.sender);\r\n         \r\n         players[chairperson] = msg.sender.balance;\r\n        // chairperson.transfer(msg.value);\r\n         //console.log(\"System has been initiated with chairperson: \", chairperson, \" with balance \", msg.sender.balance);\r\n        }\r\n     function register () public payable{ \r\n        address payable ad = payable(msg.sender);\r\n        players[ad] = msg.sender.balance;\r\n        member[ad] = 1;\r\n         isCoach[ad]=0;\r\n     }\r\n    function registerCoach () public payable{\r\n        address payable ad = payable(msg.sender);\r\n        players[ad] = msg.sender.balance;\r\n        member[ad] = 1;\r\n        isCoach[ad]=1;\r\n    }\r\n     function unRegister() public payable{\r\n         address payable ad = payable(msg.sender);\r\n         member[ad] = 0;\r\n         isCoach[ad]=0;\r\n     }\r\n   //   function register_service(service memory s, string memory playerName) onlyMember beYourSelf(playerName) public{\r\n   //      address ad = playerToAdress[playerName];\r\n   //      players[ad].services.push(s);\r\n   //      console.log(\"Address \", ad, \" registred the service called \", s.name);\r\n   //   }\r\n     function register_service() onlyMember public{\r\n        // We will only verify whether the sender address can register a service. Only modifier onlyMember() is necessary for that\r\n     }\r\n    function submit_service() onlyCoach public {\r\n\r\n    }\r\n     function unRegisterService() onlyMember public {\r\n         //same\r\n     }\r\n\r\n      function editService() onlyMember public {\r\n         //same\r\n      }\r\n      function rateService() onlyMember public {\r\n         //same\r\n         \r\n      }\r\n      \r\n     function sendMoney(address payable toAddress) onlyMember onlyMemberTo(toAddress) payable public {\r\n         address fromAddress = msg.sender;\r\n         uint amt = msg.value;\r\n         players[toAddress] = players[toAddress] + amt;\r\n         players[fromAddress] = players[fromAddress] - amt;\r\n         toAddress.transfer(amt); \r\n     }\r\n\r\n   function isRegistered (address a) public view returns(bool){\r\n         return (member[a] == 1);\r\n   }\r\n    function isCoachView (address a) public view returns(bool){\r\n        return (isCoach[a]==1);\r\n    }\r\n\r\n    function print(address a) public view {\r\n        uint p = players[a];\r\n        //console.log(\"Player \",a, \" has a balance of \", p);\r\n    }\r\n    \r\n}",
  "sourcePath": "C:\\Users\\Alain Schaerer\\Git\\football_marketplace - Copy\\football_marketplace-contracts\\contracts\\Players.sol",
  "compiler": {
    "name": "solc",
    "version": "0.8.11+commit.d7f03943.Emscripten.clang"
  },
  "schemaVersion": "3.4.5",
  "updatedAt": "2022-03-26T03:12:06.862Z",
  "networkType": "ethereum",
  "devdoc": {
    "kind": "dev",
    "methods": {},
    "version": 1
  },
  "userdoc": {
    "kind": "user",
    "methods": {},
    "version": 1
  }
}