{
  "contractName": "Players",
  "abi": [
    {
      "inputs": [],
      "stateMutability": "payable",
      "type": "constructor",
      "payable": true
    },
    {
      "inputs": [
        {
          "internalType": "address",
          "name": "",
          "type": "address"
        }
      ],
      "name": "players",
      "outputs": [
        {
          "internalType": "uint256",
          "name": "",
          "type": "uint256"
        }
      ],
      "stateMutability": "view",
      "type": "function",
      "constant": true
    },
    {
      "inputs": [],
      "name": "register",
      "outputs": [],
      "stateMutability": "payable",
      "type": "function",
      "payable": true
    },
    {
      "inputs": [],
      "name": "registerCoach",
      "outputs": [],
      "stateMutability": "payable",
      "type": "function",
      "payable": true
    },
    {
      "inputs": [],
      "name": "unRegister",
      "outputs": [],
      "stateMutability": "payable",
      "type": "function",
      "payable": true
    },
    {
      "inputs": [],
      "name": "register_service",
      "outputs": [],
      "stateMutability": "nonpayable",
      "type": "function"
    },
    {
      "inputs": [],
      "name": "submit_service",
      "outputs": [],
      "stateMutability": "nonpayable",
      "type": "function"
    },
    {
      "inputs": [],
      "name": "unRegisterService",
      "outputs": [],
      "stateMutability": "nonpayable",
      "type": "function"
    },
    {
      "inputs": [],
      "name": "editService",
      "outputs": [],
      "stateMutability": "nonpayable",
      "type": "function"
    },
    {
      "inputs": [],
      "name": "rateService",
      "outputs": [],
      "stateMutability": "nonpayable",
      "type": "function"
    },
    {
      "inputs": [
        {
          "internalType": "address payable",
          "name": "toAddress",
          "type": "address"
        }
      ],
      "name": "sendMoney",
      "outputs": [],
      "stateMutability": "payable",
      "type": "function",
      "payable": true
    },
    {
      "inputs": [
        {
          "internalType": "address",
          "name": "a",
          "type": "address"
        }
      ],
      "name": "isRegistered",
      "outputs": [
        {
          "internalType": "bool",
          "name": "",
          "type": "bool"
        }
      ],
      "stateMutability": "view",
      "type": "function",
      "constant": true
    },
    {
      "inputs": [
        {
          "internalType": "address",
          "name": "a",
          "type": "address"
        }
      ],
      "name": "print",
      "outputs": [],
      "stateMutability": "view",
      "type": "function",
      "constant": true
    }
  ],
  "bytecode": "0x6080604052336000806101000a81548173ffffffffffffffffffffffffffffffffffffffff021916908373ffffffffffffffffffffffffffffffffffffffff1602179055503373ffffffffffffffffffffffffffffffffffffffff1631600160008060009054906101000a900473ffffffffffffffffffffffffffffffffffffffff1673ffffffffffffffffffffffffffffffffffffffff1673ffffffffffffffffffffffffffffffffffffffff16815260200190815260200160002081905550610afa806100cf6000396000f3fe6080604052600436106100a75760003560e01c80632a6f6d12116100645780632a6f6d1214610121578063338ccd7814610138578063c3c5a54714610154578063db643ae214610191578063e2eb41ff146101a8578063f0607697146101e5576100a7565b80631aa3a008146100ac5780631e46cd84146100b65780631ffd6518146100cd57806322ea29ec146100d757806324d427a9146100ee57806326d7b3b414610117575b600080fd5b6100b46101fc565b005b3480156100c257600080fd5b506100cb6102e9565b005b6100d5610337565b005b3480156100e357600080fd5b506100ec610424565b005b3480156100fa57600080fd5b5061011560048036038101906101109190610909565b610472565b005b61011f6104ba565b005b34801561012d57600080fd5b5061013661054c565b005b610152600480360381019061014d9190610974565b61059a565b005b34801561016057600080fd5b5061017b60048036038101906101769190610909565b6107a6565b60405161018891906109bc565b60405180910390f35b34801561019d57600080fd5b506101a66107f2565b005b3480156101b457600080fd5b506101cf60048036038101906101ca9190610909565b610840565b6040516101dc91906109f0565b60405180910390f35b3480156101f157600080fd5b506101fa610858565b005b60003390503373ffffffffffffffffffffffffffffffffffffffff1631600160008373ffffffffffffffffffffffffffffffffffffffff1673ffffffffffffffffffffffffffffffffffffffff168152602001908152602001600020819055506001600260008373ffffffffffffffffffffffffffffffffffffffff1673ffffffffffffffffffffffffffffffffffffffff168152602001908152602001600020819055506000600360008373ffffffffffffffffffffffffffffffffffffffff1673ffffffffffffffffffffffffffffffffffffffff1681526020019081526020016000208190555050565b6001600260003373ffffffffffffffffffffffffffffffffffffffff1673ffffffffffffffffffffffffffffffffffffffff168152602001908152602001600020541461033557600080fd5b565b60003390503373ffffffffffffffffffffffffffffffffffffffff1631600160008373ffffffffffffffffffffffffffffffffffffffff1673ffffffffffffffffffffffffffffffffffffffff168152602001908152602001600020819055506001600260008373ffffffffffffffffffffffffffffffffffffffff1673ffffffffffffffffffffffffffffffffffffffff168152602001908152602001600020819055506001600360008373ffffffffffffffffffffffffffffffffffffffff1673ffffffffffffffffffffffffffffffffffffffff1681526020019081526020016000208190555050565b6001600260003373ffffffffffffffffffffffffffffffffffffffff1673ffffffffffffffffffffffffffffffffffffffff168152602001908152602001600020541461047057600080fd5b565b6000600160008373ffffffffffffffffffffffffffffffffffffffff1673ffffffffffffffffffffffffffffffffffffffff1681526020019081526020016000205490505050565b60003390506000600260008373ffffffffffffffffffffffffffffffffffffffff1673ffffffffffffffffffffffffffffffffffffffff168152602001908152602001600020819055506000600360008373ffffffffffffffffffffffffffffffffffffffff1673ffffffffffffffffffffffffffffffffffffffff1681526020019081526020016000208190555050565b6001600260003373ffffffffffffffffffffffffffffffffffffffff1673ffffffffffffffffffffffffffffffffffffffff168152602001908152602001600020541461059857600080fd5b565b6001600260003373ffffffffffffffffffffffffffffffffffffffff1673ffffffffffffffffffffffffffffffffffffffff16815260200190815260200160002054146105e657600080fd5b806001600260008373ffffffffffffffffffffffffffffffffffffffff1673ffffffffffffffffffffffffffffffffffffffff168152602001908152602001600020541461063357600080fd5b6000339050600034905080600160008673ffffffffffffffffffffffffffffffffffffffff1673ffffffffffffffffffffffffffffffffffffffff168152602001908152602001600020546106889190610a3a565b600160008673ffffffffffffffffffffffffffffffffffffffff1673ffffffffffffffffffffffffffffffffffffffff1681526020019081526020016000208190555080600160008473ffffffffffffffffffffffffffffffffffffffff1673ffffffffffffffffffffffffffffffffffffffff168152602001908152602001600020546107169190610a90565b600160008473ffffffffffffffffffffffffffffffffffffffff1673ffffffffffffffffffffffffffffffffffffffff168152602001908152602001600020819055508373ffffffffffffffffffffffffffffffffffffffff166108fc829081150290604051600060405180830381858888f1935050505015801561079f573d6000803e3d6000fd5b5050505050565b60006001600260008473ffffffffffffffffffffffffffffffffffffffff1673ffffffffffffffffffffffffffffffffffffffff16815260200190815260200160002054149050919050565b6001600260003373ffffffffffffffffffffffffffffffffffffffff1673ffffffffffffffffffffffffffffffffffffffff168152602001908152602001600020541461083e57600080fd5b565b60016020528060005260406000206000915090505481565b6001600360003373ffffffffffffffffffffffffffffffffffffffff1673ffffffffffffffffffffffffffffffffffffffff16815260200190815260200160002054146108a457600080fd5b565b600080fd5b600073ffffffffffffffffffffffffffffffffffffffff82169050919050565b60006108d6826108ab565b9050919050565b6108e6816108cb565b81146108f157600080fd5b50565b600081359050610903816108dd565b92915050565b60006020828403121561091f5761091e6108a6565b5b600061092d848285016108f4565b91505092915050565b6000610941826108ab565b9050919050565b61095181610936565b811461095c57600080fd5b50565b60008135905061096e81610948565b92915050565b60006020828403121561098a576109896108a6565b5b60006109988482850161095f565b91505092915050565b60008115159050919050565b6109b6816109a1565b82525050565b60006020820190506109d160008301846109ad565b92915050565b6000819050919050565b6109ea816109d7565b82525050565b6000602082019050610a0560008301846109e1565b92915050565b7f4e487b7100000000000000000000000000000000000000000000000000000000600052601160045260246000fd5b6000610a45826109d7565b9150610a50836109d7565b9250827fffffffffffffffffffffffffffffffffffffffffffffffffffffffffffffffff03821115610a8557610a84610a0b565b5b828201905092915050565b6000610a9b826109d7565b9150610aa6836109d7565b925082821015610ab957610ab8610a0b565b5b82820390509291505056fea26469706673582212208480fbffb05f00d89be76fc099826e905985f0a3d27229f79a72d8497721c88c64736f6c634300080b0033",
  "immutableReferences": {},
  "source": "// SPDX-License-Identifier: GPL-3.0\r\n\r\npragma solidity >=0.4.22 <0.9.0;\r\n\r\ncontract Players{\r\n     address payable chairperson;\r\n      mapping (address=>uint) public players; // maps player to its balance\r\n      mapping(address =>uint) member;\r\n    mapping(address=>uint) isCoach;\r\n\r\n  \r\n\r\n      modifier onlyMember{ \r\n         require(member[msg.sender]==1);\r\n            _;\r\n      }\r\n      // checks whether the address that the sender wants to send money to is also a member\r\n      modifier onlyMemberTo(address payable toAddress){ \r\n         require(member[toAddress]==1);\r\n            _;\r\n      }\r\n   \r\n      modifier beYourSelfViaAddress (address _ad){\r\n         require(msg.sender == _ad);\r\n         _;\r\n      }\r\n\r\n    modifier onlyCoach{\r\n        require(isCoach[msg.sender]==1);\r\n        _;\r\n    }\r\n    constructor () public payable { \r\n         chairperson= payable(msg.sender);\r\n         \r\n         players[chairperson] = msg.sender.balance;\r\n        // chairperson.transfer(msg.value);\r\n         //console.log(\"System has been initiated with chairperson: \", chairperson, \" with balance \", msg.sender.balance);\r\n        }\r\n     function register () public payable{ \r\n        address payable ad = payable(msg.sender);\r\n        players[ad] = msg.sender.balance;\r\n        member[ad] = 1;\r\n         isCoach[ad]=0;\r\n     }\r\n    function registerCoach () public payable{\r\n        address payable ad = payable(msg.sender);\r\n        players[ad] = msg.sender.balance;\r\n        member[ad] = 1;\r\n        isCoach[ad]=1;\r\n    }\r\n     function unRegister() public payable{\r\n         address payable ad = payable(msg.sender);\r\n         member[ad] = 0;\r\n         isCoach[ad]=0;\r\n     }\r\n   //   function register_service(service memory s, string memory playerName) onlyMember beYourSelf(playerName) public{\r\n   //      address ad = playerToAdress[playerName];\r\n   //      players[ad].services.push(s);\r\n   //      console.log(\"Address \", ad, \" registred the service called \", s.name);\r\n   //   }\r\n     function register_service() onlyMember public{\r\n        // We will only verify whether the sender address can register a service. Only modifier onlyMember() is necessary for that\r\n     }\r\n    function submit_service() onlyCoach public {\r\n\r\n    }\r\n     function unRegisterService() onlyMember public {\r\n         //same\r\n     }\r\n\r\n      function editService() onlyMember public {\r\n         //same\r\n      }\r\n      function rateService() onlyMember public {\r\n         //same\r\n         \r\n      }\r\n      \r\n     function sendMoney(address payable toAddress) onlyMember onlyMemberTo(toAddress) payable public {\r\n         address fromAddress = msg.sender;\r\n         uint amt = msg.value;\r\n         players[toAddress] = players[toAddress] + amt;\r\n         players[fromAddress] = players[fromAddress] - amt;\r\n         toAddress.transfer(amt); \r\n     }\r\n   //   function sendMoney(string memory toName) onlyMember payable public {\r\n   //      uint amt = msg.value;\r\n   //      address payable toAddress = playerToAdress[toName];\r\n   //       address fromAddress=msg.sender;\r\n   //       players[toAddress].balance = players[toAddress].balance + amt;\r\n   //       players[fromAddress].balance = players[fromAddress].balance - amt;\r\n   //       toAddress.transfer(amt); \r\n   //   }\r\n\r\n   function isRegistered (address a) public view returns(bool){\r\n         return (member[a] == 1);\r\n   }\r\n\r\n    function print(address a) public view {\r\n        uint p = players[a];\r\n        //console.log(\"Player \",a, \" has a balance of \", p);\r\n    }\r\n    \r\n}",
  "sourcePath": "C:\\Users\\Alain Schaerer\\Git\\football_marketplace\\football_marketplace-contracts\\contracts\\Players.sol",
  "compiler": {
    "name": "solc",
    "version": "0.8.11+commit.d7f03943.Emscripten.clang"
  },
  "schemaVersion": "3.4.5",
  "updatedAt": "2022-03-13T04:51:00.125Z",
  "networkType": "ethereum",
  "devdoc": {
    "kind": "dev",
    "methods": {},
    "version": 1
  },
  "userdoc": {
    "kind": "user",
    "methods": {},
    "version": 1
  }
}