{
  "contractName": "Players",
  "abi": [
    {
      "inputs": [
        {
          "internalType": "uint256",
          "name": "initialSupply",
          "type": "uint256"
        }
      ],
      "stateMutability": "payable",
      "type": "constructor",
      "payable": true
    },
    {
      "anonymous": false,
      "inputs": [
        {
          "indexed": true,
          "internalType": "address",
          "name": "owner",
          "type": "address"
        },
        {
          "indexed": true,
          "internalType": "address",
          "name": "spender",
          "type": "address"
        },
        {
          "indexed": false,
          "internalType": "uint256",
          "name": "value",
          "type": "uint256"
        }
      ],
      "name": "Approval",
      "type": "event"
    },
    {
      "anonymous": false,
      "inputs": [
        {
          "indexed": true,
          "internalType": "address",
          "name": "from",
          "type": "address"
        },
        {
          "indexed": true,
          "internalType": "address",
          "name": "to",
          "type": "address"
        },
        {
          "indexed": false,
          "internalType": "uint256",
          "name": "value",
          "type": "uint256"
        }
      ],
      "name": "Transfer",
      "type": "event"
    },
    {
      "inputs": [
        {
          "internalType": "address",
          "name": "owner",
          "type": "address"
        },
        {
          "internalType": "address",
          "name": "spender",
          "type": "address"
        }
      ],
      "name": "allowance",
      "outputs": [
        {
          "internalType": "uint256",
          "name": "",
          "type": "uint256"
        }
      ],
      "stateMutability": "view",
      "type": "function",
      "constant": true
    },
    {
      "inputs": [
        {
          "internalType": "address",
          "name": "spender",
          "type": "address"
        },
        {
          "internalType": "uint256",
          "name": "amount",
          "type": "uint256"
        }
      ],
      "name": "approve",
      "outputs": [
        {
          "internalType": "bool",
          "name": "",
          "type": "bool"
        }
      ],
      "stateMutability": "nonpayable",
      "type": "function"
    },
    {
      "inputs": [
        {
          "internalType": "address",
          "name": "account",
          "type": "address"
        }
      ],
      "name": "balanceOf",
      "outputs": [
        {
          "internalType": "uint256",
          "name": "",
          "type": "uint256"
        }
      ],
      "stateMutability": "view",
      "type": "function",
      "constant": true
    },
    {
      "inputs": [],
      "name": "decimals",
      "outputs": [
        {
          "internalType": "uint8",
          "name": "",
          "type": "uint8"
        }
      ],
      "stateMutability": "view",
      "type": "function",
      "constant": true
    },
    {
      "inputs": [
        {
          "internalType": "address",
          "name": "spender",
          "type": "address"
        },
        {
          "internalType": "uint256",
          "name": "subtractedValue",
          "type": "uint256"
        }
      ],
      "name": "decreaseAllowance",
      "outputs": [
        {
          "internalType": "bool",
          "name": "",
          "type": "bool"
        }
      ],
      "stateMutability": "nonpayable",
      "type": "function"
    },
    {
      "inputs": [
        {
          "internalType": "address",
          "name": "spender",
          "type": "address"
        },
        {
          "internalType": "uint256",
          "name": "addedValue",
          "type": "uint256"
        }
      ],
      "name": "increaseAllowance",
      "outputs": [
        {
          "internalType": "bool",
          "name": "",
          "type": "bool"
        }
      ],
      "stateMutability": "nonpayable",
      "type": "function"
    },
    {
      "inputs": [],
      "name": "name",
      "outputs": [
        {
          "internalType": "string",
          "name": "",
          "type": "string"
        }
      ],
      "stateMutability": "view",
      "type": "function",
      "constant": true
    },
    {
      "inputs": [],
      "name": "symbol",
      "outputs": [
        {
          "internalType": "string",
          "name": "",
          "type": "string"
        }
      ],
      "stateMutability": "view",
      "type": "function",
      "constant": true
    },
    {
      "inputs": [],
      "name": "totalSupply",
      "outputs": [
        {
          "internalType": "uint256",
          "name": "",
          "type": "uint256"
        }
      ],
      "stateMutability": "view",
      "type": "function",
      "constant": true
    },
    {
      "inputs": [
        {
          "internalType": "address",
          "name": "to",
          "type": "address"
        },
        {
          "internalType": "uint256",
          "name": "amount",
          "type": "uint256"
        }
      ],
      "name": "transfer",
      "outputs": [
        {
          "internalType": "bool",
          "name": "",
          "type": "bool"
        }
      ],
      "stateMutability": "nonpayable",
      "type": "function"
    },
    {
      "inputs": [
        {
          "internalType": "address",
          "name": "from",
          "type": "address"
        },
        {
          "internalType": "address",
          "name": "to",
          "type": "address"
        },
        {
          "internalType": "uint256",
          "name": "amount",
          "type": "uint256"
        }
      ],
      "name": "transferFrom",
      "outputs": [
        {
          "internalType": "bool",
          "name": "",
          "type": "bool"
        }
      ],
      "stateMutability": "nonpayable",
      "type": "function"
    },
    {
      "inputs": [],
      "name": "register",
      "outputs": [],
      "stateMutability": "payable",
      "type": "function",
      "payable": true
    },
    {
      "inputs": [
        {
          "internalType": "uint256",
          "name": "amount",
          "type": "uint256"
        }
      ],
      "name": "airdrop",
      "outputs": [
        {
          "internalType": "bool",
          "name": "",
          "type": "bool"
        }
      ],
      "stateMutability": "nonpayable",
      "type": "function"
    },
    {
      "inputs": [
        {
          "internalType": "address",
          "name": "to",
          "type": "address"
        },
        {
          "internalType": "uint256",
          "name": "amount",
          "type": "uint256"
        }
      ],
      "name": "airdrop2",
      "outputs": [
        {
          "internalType": "bool",
          "name": "",
          "type": "bool"
        }
      ],
      "stateMutability": "nonpayable",
      "type": "function"
    },
    {
      "inputs": [
        {
          "internalType": "address payable",
          "name": "toRegister",
          "type": "address"
        }
      ],
      "name": "registerCoach",
      "outputs": [],
      "stateMutability": "payable",
      "type": "function",
      "payable": true
    },
    {
      "inputs": [],
      "name": "unRegister",
      "outputs": [],
      "stateMutability": "payable",
      "type": "function",
      "payable": true
    },
    {
      "inputs": [],
      "name": "register_service",
      "outputs": [],
      "stateMutability": "nonpayable",
      "type": "function"
    },
    {
      "inputs": [],
      "name": "submit_service",
      "outputs": [],
      "stateMutability": "nonpayable",
      "type": "function"
    },
    {
      "inputs": [
        {
          "internalType": "address",
          "name": "a",
          "type": "address"
        }
      ],
      "name": "isRegistered",
      "outputs": [
        {
          "internalType": "bool",
          "name": "",
          "type": "bool"
        }
      ],
      "stateMutability": "view",
      "type": "function",
      "constant": true
    },
    {
      "inputs": [
        {
          "internalType": "address",
          "name": "a",
          "type": "address"
        }
      ],
      "name": "isCoachView",
      "outputs": [
        {
          "internalType": "bool",
          "name": "",
          "type": "bool"
        }
      ],
      "stateMutability": "view",
      "type": "function",
      "constant": true
    },
    {
      "inputs": [
        {
          "internalType": "address",
          "name": "a",
          "type": "address"
        }
      ],
      "name": "isChairperson",
      "outputs": [
        {
          "internalType": "bool",
          "name": "",
          "type": "bool"
        }
      ],
      "stateMutability": "view",
      "type": "function",
      "constant": true
    },
    {
      "inputs": [],
      "name": "getTokenAddress",
      "outputs": [
        {
          "internalType": "address",
          "name": "",
          "type": "address"
        }
      ],
      "stateMutability": "view",
      "type": "function",
      "constant": true
    },
    {
      "inputs": [
        {
          "internalType": "address",
          "name": "from",
          "type": "address"
        }
      ],
      "name": "getBalance",
      "outputs": [
        {
          "internalType": "uint256",
          "name": "",
          "type": "uint256"
        }
      ],
      "stateMutability": "view",
      "type": "function",
      "constant": true
    }
  ],
  "bytecode": "0x6080604052735592b0f6ca24d925cdab7ca187487a701571759e600560006101000a81548173ffffffffffffffffffffffffffffffffffffffff021916908373ffffffffffffffffffffffffffffffffffffffff1602179055506040516200268d3803806200268d83398181016040528101906200007e9190620003e0565b6040518060400160405280600381526020017f42747400000000000000000000000000000000000000000000000000000000008152506040518060400160405280600381526020017f4274740000000000000000000000000000000000000000000000000000000000815250816003908051906020019062000102929190620002f0565b5080600490805190602001906200011b929190620002f0565b5050506200015d30620001336200016460201b60201c565b60ff16600a62000144919062000595565b83620001519190620005e6565b6200016d60201b60201c565b50620007ba565b60006012905090565b600073ffffffffffffffffffffffffffffffffffffffff168273ffffffffffffffffffffffffffffffffffffffff161415620001e0576040517f08c379a0000000000000000000000000000000000000000000000000000000008152600401620001d790620006a8565b60405180910390fd5b620001f460008383620002e660201b60201c565b8060026000828254620002089190620006ca565b92505081905550806000808473ffffffffffffffffffffffffffffffffffffffff1673ffffffffffffffffffffffffffffffffffffffff16815260200190815260200160002060008282546200025f9190620006ca565b925050819055508173ffffffffffffffffffffffffffffffffffffffff16600073ffffffffffffffffffffffffffffffffffffffff167fddf252ad1be2c89b69c2b068fc378daa952ba7f163c4a11628f55a4df523b3ef83604051620002c6919062000738565b60405180910390a3620002e260008383620002eb60201b60201c565b5050565b505050565b505050565b828054620002fe9062000784565b90600052602060002090601f0160209004810192826200032257600085556200036e565b82601f106200033d57805160ff19168380011785556200036e565b828001600101855582156200036e579182015b828111156200036d57825182559160200191906001019062000350565b5b5090506200037d919062000381565b5090565b5b808211156200039c57600081600090555060010162000382565b5090565b600080fd5b6000819050919050565b620003ba81620003a5565b8114620003c657600080fd5b50565b600081519050620003da81620003af565b92915050565b600060208284031215620003f957620003f8620003a0565b5b60006200040984828501620003c9565b91505092915050565b7f4e487b7100000000000000000000000000000000000000000000000000000000600052601160045260246000fd5b60008160011c9050919050565b6000808291508390505b6001851115620004a05780860481111562000478576200047762000412565b5b6001851615620004885780820291505b8081029050620004988562000441565b945062000458565b94509492505050565b600082620004bb57600190506200058e565b81620004cb57600090506200058e565b8160018114620004e45760028114620004ef5762000525565b60019150506200058e565b60ff84111562000504576200050362000412565b5b8360020a9150848211156200051e576200051d62000412565b5b506200058e565b5060208310610133831016604e8410600b84101617156200055f5782820a90508381111562000559576200055862000412565b5b6200058e565b6200056e84848460016200044e565b9250905081840481111562000588576200058762000412565b5b81810290505b9392505050565b6000620005a282620003a5565b9150620005af83620003a5565b9250620005de7fffffffffffffffffffffffffffffffffffffffffffffffffffffffffffffffff8484620004a9565b905092915050565b6000620005f382620003a5565b91506200060083620003a5565b9250817fffffffffffffffffffffffffffffffffffffffffffffffffffffffffffffffff04831182151516156200063c576200063b62000412565b5b828202905092915050565b600082825260208201905092915050565b7f45524332303a206d696e7420746f20746865207a65726f206164647265737300600082015250565b600062000690601f8362000647565b91506200069d8262000658565b602082019050919050565b60006020820190508181036000830152620006c38162000681565b9050919050565b6000620006d782620003a5565b9150620006e483620003a5565b9250827fffffffffffffffffffffffffffffffffffffffffffffffffffffffffffffffff038211156200071c576200071b62000412565b5b828201905092915050565b6200073281620003a5565b82525050565b60006020820190506200074f600083018462000727565b92915050565b7f4e487b7100000000000000000000000000000000000000000000000000000000600052602260045260246000fd5b600060028204905060018216806200079d57607f821691505b60208210811415620007b457620007b362000755565b5b50919050565b611ec380620007ca6000396000f3fe6080604052600436106101405760003560e01c806397dc4a13116100b6578063cd009e241161006f578063cd009e2414610471578063db643ae2146104ae578063dd62ed3e146104c5578063f060769714610502578063f8b2cb4f14610519578063fe73b5b31461055657610140565b806397dc4a13146103245780639cacb26114610361578063a41f23f91461039e578063a457c2d7146103ba578063a9059cbb146103f7578063c3c5a5471461043457610140565b806323b872dd1161010857806323b872dd1461020d57806326d7b3b41461024a578063313ce56714610254578063395093511461027f57806370a08231146102bc57806395d89b41146102f957610140565b806306fdde0314610145578063095ea7b31461017057806310fe9ae8146101ad57806318160ddd146101d85780631aa3a00814610203575b600080fd5b34801561015157600080fd5b5061015a610593565b6040516101679190611483565b60405180910390f35b34801561017c57600080fd5b506101976004803603810190610192919061153e565b610625565b6040516101a49190611599565b60405180910390f35b3480156101b957600080fd5b506101c2610648565b6040516101cf91906115c3565b60405180910390f35b3480156101e457600080fd5b506101ed610672565b6040516101fa91906115ed565b60405180910390f35b61020b61067c565b005b34801561021957600080fd5b50610234600480360381019061022f9190611608565b610786565b6040516102419190611599565b60405180910390f35b6102526107b5565b005b34801561026057600080fd5b50610269610847565b6040516102769190611677565b60405180910390f35b34801561028b57600080fd5b506102a660048036038101906102a1919061153e565b610850565b6040516102b39190611599565b60405180910390f35b3480156102c857600080fd5b506102e360048036038101906102de9190611692565b6108fa565b6040516102f091906115ed565b60405180910390f35b34801561030557600080fd5b5061030e610942565b60405161031b9190611483565b60405180910390f35b34801561033057600080fd5b5061034b600480360381019061034691906116bf565b6109d4565b6040516103589190611599565b60405180910390f35b34801561036d57600080fd5b5061038860048036038101906103839190611692565b610a3b565b6040516103959190611599565b60405180910390f35b6103b860048036038101906103b3919061172a565b610a95565b005b3480156103c657600080fd5b506103e160048036038101906103dc919061153e565b610b7c565b6040516103ee9190611599565b60405180910390f35b34801561040357600080fd5b5061041e6004803603810190610419919061153e565b610c66565b60405161042b9190611599565b60405180910390f35b34801561044057600080fd5b5061045b60048036038101906104569190611692565b610c89565b6040516104689190611599565b60405180910390f35b34801561047d57600080fd5b506104986004803603810190610493919061153e565b610cd5565b6040516104a59190611599565b60405180910390f35b3480156104ba57600080fd5b506104c3610d5e565b005b3480156104d157600080fd5b506104ec60048036038101906104e79190611757565b610dac565b6040516104f991906115ed565b60405180910390f35b34801561050e57600080fd5b50610517610e33565b005b34801561052557600080fd5b50610540600480360381019061053b9190611692565b610e81565b60405161054d91906115ed565b60405180910390f35b34801561056257600080fd5b5061057d60048036038101906105789190611692565b610eb4565b60405161058a9190611599565b60405180910390f35b6060600380546105a2906117c6565b80601f01602080910402602001604051908101604052809291908181526020018280546105ce906117c6565b801561061b5780601f106105f05761010080835404028352916020019161061b565b820191906000526020600020905b8154815290600101906020018083116105fe57829003601f168201915b5050505050905090565b600080610630610f00565b905061063d818585610f08565b600191505092915050565b6000600960009054906101000a900473ffffffffffffffffffffffffffffffffffffffff16905090565b6000600254905090565b6000600660003373ffffffffffffffffffffffffffffffffffffffff1673ffffffffffffffffffffffffffffffffffffffff16815260200190815260200160002054146106c857600080fd5b60003390506106f86106d8610847565b60ff16600a6106e7919061195a565b60146106f391906119a5565b6109d4565b506001600660008373ffffffffffffffffffffffffffffffffffffffff1673ffffffffffffffffffffffffffffffffffffffff168152602001908152602001600020819055506000600760008373ffffffffffffffffffffffffffffffffffffffff1673ffffffffffffffffffffffffffffffffffffffff1681526020019081526020016000208190555050565b600080610791610f00565b905061079e8582856110d3565b6107a985858561115f565b60019150509392505050565b60003390506000600660008373ffffffffffffffffffffffffffffffffffffffff1673ffffffffffffffffffffffffffffffffffffffff168152602001908152602001600020819055506000600760008373ffffffffffffffffffffffffffffffffffffffff1673ffffffffffffffffffffffffffffffffffffffff1681526020019081526020016000208190555050565b60006012905090565b60008061085b610f00565b90506108ef818585600160008673ffffffffffffffffffffffffffffffffffffffff1673ffffffffffffffffffffffffffffffffffffffff16815260200190815260200160002060008973ffffffffffffffffffffffffffffffffffffffff1673ffffffffffffffffffffffffffffffffffffffff168152602001908152602001600020546108ea91906119ff565b610f08565b600191505092915050565b60008060008373ffffffffffffffffffffffffffffffffffffffff1673ffffffffffffffffffffffffffffffffffffffff168152602001908152602001600020549050919050565b606060048054610951906117c6565b80601f016020809104026020016040519081016040528092919081815260200182805461097d906117c6565b80156109ca5780601f1061099f576101008083540402835291602001916109ca565b820191906000526020600020905b8154815290600101906020018083116109ad57829003601f168201915b5050505050905090565b600080600660003373ffffffffffffffffffffffffffffffffffffffff1673ffffffffffffffffffffffffffffffffffffffff1681526020019081526020016000205414610a2157600080fd5b6000309050610a3181338561115f565b6001915050919050565b6000600560009054906101000a900473ffffffffffffffffffffffffffffffffffffffff1673ffffffffffffffffffffffffffffffffffffffff168273ffffffffffffffffffffffffffffffffffffffff16149050919050565b600560009054906101000a900473ffffffffffffffffffffffffffffffffffffffff1673ffffffffffffffffffffffffffffffffffffffff163373ffffffffffffffffffffffffffffffffffffffff1614610aef57600080fd5b6001600660008373ffffffffffffffffffffffffffffffffffffffff1673ffffffffffffffffffffffffffffffffffffffff168152602001908152602001600020819055506001600760008373ffffffffffffffffffffffffffffffffffffffff1673ffffffffffffffffffffffffffffffffffffffff1681526020019081526020016000208190555050565b600080610b87610f00565b90506000600160008373ffffffffffffffffffffffffffffffffffffffff1673ffffffffffffffffffffffffffffffffffffffff16815260200190815260200160002060008673ffffffffffffffffffffffffffffffffffffffff1673ffffffffffffffffffffffffffffffffffffffff16815260200190815260200160002054905083811015610c4d576040517f08c379a0000000000000000000000000000000000000000000000000000000008152600401610c4490611ac7565b60405180910390fd5b610c5a8286868403610f08565b60019250505092915050565b600080610c71610f00565b9050610c7e81858561115f565b600191505092915050565b60006001600660008473ffffffffffffffffffffffffffffffffffffffff1673ffffffffffffffffffffffffffffffffffffffff16815260200190815260200160002054149050919050565b600080600660003373ffffffffffffffffffffffffffffffffffffffff1673ffffffffffffffffffffffffffffffffffffffff1681526020019081526020016000205414610d2257600080fd5b6000309050610d538185610d34610847565b60ff16600a610d43919061195a565b86610d4e91906119a5565b61115f565b600191505092915050565b6001600660003373ffffffffffffffffffffffffffffffffffffffff1673ffffffffffffffffffffffffffffffffffffffff1681526020019081526020016000205414610daa57600080fd5b565b6000600160008473ffffffffffffffffffffffffffffffffffffffff1673ffffffffffffffffffffffffffffffffffffffff16815260200190815260200160002060008373ffffffffffffffffffffffffffffffffffffffff1673ffffffffffffffffffffffffffffffffffffffff16815260200190815260200160002054905092915050565b6001600760003373ffffffffffffffffffffffffffffffffffffffff1673ffffffffffffffffffffffffffffffffffffffff1681526020019081526020016000205414610e7f57600080fd5b565b6000610e8b610847565b60ff16600a610e9a919061195a565b610ea3836108fa565b610ead9190611b16565b9050919050565b60006001600760008473ffffffffffffffffffffffffffffffffffffffff1673ffffffffffffffffffffffffffffffffffffffff16815260200190815260200160002054149050919050565b600033905090565b600073ffffffffffffffffffffffffffffffffffffffff168373ffffffffffffffffffffffffffffffffffffffff161415610f78576040517f08c379a0000000000000000000000000000000000000000000000000000000008152600401610f6f90611bb9565b60405180910390fd5b600073ffffffffffffffffffffffffffffffffffffffff168273ffffffffffffffffffffffffffffffffffffffff161415610fe8576040517f08c379a0000000000000000000000000000000000000000000000000000000008152600401610fdf90611c4b565b60405180910390fd5b80600160008573ffffffffffffffffffffffffffffffffffffffff1673ffffffffffffffffffffffffffffffffffffffff16815260200190815260200160002060008473ffffffffffffffffffffffffffffffffffffffff1673ffffffffffffffffffffffffffffffffffffffff168152602001908152602001600020819055508173ffffffffffffffffffffffffffffffffffffffff168373ffffffffffffffffffffffffffffffffffffffff167f8c5be1e5ebec7d5bd14f71427d1e84f3dd0314c0f7b2291e5b200ac8c7c3b925836040516110c691906115ed565b60405180910390a3505050565b60006110df8484610dac565b90507fffffffffffffffffffffffffffffffffffffffffffffffffffffffffffffffff8114611159578181101561114b576040517f08c379a000000000000000000000000000000000000000000000000000000000815260040161114290611cb7565b60405180910390fd5b6111588484848403610f08565b5b50505050565b600073ffffffffffffffffffffffffffffffffffffffff168373ffffffffffffffffffffffffffffffffffffffff1614156111cf576040517f08c379a00000000000000000000000000000000000000000000000000000000081526004016111c690611d49565b60405180910390fd5b600073ffffffffffffffffffffffffffffffffffffffff168273ffffffffffffffffffffffffffffffffffffffff16141561123f576040517f08c379a000000000000000000000000000000000000000000000000000000000815260040161123690611ddb565b60405180910390fd5b61124a8383836113e0565b60008060008573ffffffffffffffffffffffffffffffffffffffff1673ffffffffffffffffffffffffffffffffffffffff168152602001908152602001600020549050818110156112d0576040517f08c379a00000000000000000000000000000000000000000000000000000000081526004016112c790611e6d565b60405180910390fd5b8181036000808673ffffffffffffffffffffffffffffffffffffffff1673ffffffffffffffffffffffffffffffffffffffff16815260200190815260200160002081905550816000808573ffffffffffffffffffffffffffffffffffffffff1673ffffffffffffffffffffffffffffffffffffffff168152602001908152602001600020600082825461136391906119ff565b925050819055508273ffffffffffffffffffffffffffffffffffffffff168473ffffffffffffffffffffffffffffffffffffffff167fddf252ad1be2c89b69c2b068fc378daa952ba7f163c4a11628f55a4df523b3ef846040516113c791906115ed565b60405180910390a36113da8484846113e5565b50505050565b505050565b505050565b600081519050919050565b600082825260208201905092915050565b60005b83811015611424578082015181840152602081019050611409565b83811115611433576000848401525b50505050565b6000601f19601f8301169050919050565b6000611455826113ea565b61145f81856113f5565b935061146f818560208601611406565b61147881611439565b840191505092915050565b6000602082019050818103600083015261149d818461144a565b905092915050565b600080fd5b600073ffffffffffffffffffffffffffffffffffffffff82169050919050565b60006114d5826114aa565b9050919050565b6114e5816114ca565b81146114f057600080fd5b50565b600081359050611502816114dc565b92915050565b6000819050919050565b61151b81611508565b811461152657600080fd5b50565b60008135905061153881611512565b92915050565b60008060408385031215611555576115546114a5565b5b6000611563858286016114f3565b925050602061157485828601611529565b9150509250929050565b60008115159050919050565b6115938161157e565b82525050565b60006020820190506115ae600083018461158a565b92915050565b6115bd816114ca565b82525050565b60006020820190506115d860008301846115b4565b92915050565b6115e781611508565b82525050565b600060208201905061160260008301846115de565b92915050565b600080600060608486031215611621576116206114a5565b5b600061162f868287016114f3565b9350506020611640868287016114f3565b925050604061165186828701611529565b9150509250925092565b600060ff82169050919050565b6116718161165b565b82525050565b600060208201905061168c6000830184611668565b92915050565b6000602082840312156116a8576116a76114a5565b5b60006116b6848285016114f3565b91505092915050565b6000602082840312156116d5576116d46114a5565b5b60006116e384828501611529565b91505092915050565b60006116f7826114aa565b9050919050565b611707816116ec565b811461171257600080fd5b50565b600081359050611724816116fe565b92915050565b6000602082840312156117405761173f6114a5565b5b600061174e84828501611715565b91505092915050565b6000806040838503121561176e5761176d6114a5565b5b600061177c858286016114f3565b925050602061178d858286016114f3565b9150509250929050565b7f4e487b7100000000000000000000000000000000000000000000000000000000600052602260045260246000fd5b600060028204905060018216806117de57607f821691505b602082108114156117f2576117f1611797565b5b50919050565b7f4e487b7100000000000000000000000000000000000000000000000000000000600052601160045260246000fd5b60008160011c9050919050565b6000808291508390505b600185111561187e5780860481111561185a576118596117f8565b5b60018516156118695780820291505b808102905061187785611827565b945061183e565b94509492505050565b6000826118975760019050611953565b816118a55760009050611953565b81600181146118bb57600281146118c5576118f4565b6001915050611953565b60ff8411156118d7576118d66117f8565b5b8360020a9150848211156118ee576118ed6117f8565b5b50611953565b5060208310610133831016604e8410600b84101617156119295782820a905083811115611924576119236117f8565b5b611953565b6119368484846001611834565b9250905081840481111561194d5761194c6117f8565b5b81810290505b9392505050565b600061196582611508565b915061197083611508565b925061199d7fffffffffffffffffffffffffffffffffffffffffffffffffffffffffffffffff8484611887565b905092915050565b60006119b082611508565b91506119bb83611508565b9250817fffffffffffffffffffffffffffffffffffffffffffffffffffffffffffffffff04831182151516156119f4576119f36117f8565b5b828202905092915050565b6000611a0a82611508565b9150611a1583611508565b9250827fffffffffffffffffffffffffffffffffffffffffffffffffffffffffffffffff03821115611a4a57611a496117f8565b5b828201905092915050565b7f45524332303a2064656372656173656420616c6c6f77616e63652062656c6f7760008201527f207a65726f000000000000000000000000000000000000000000000000000000602082015250565b6000611ab16025836113f5565b9150611abc82611a55565b604082019050919050565b60006020820190508181036000830152611ae081611aa4565b9050919050565b7f4e487b7100000000000000000000000000000000000000000000000000000000600052601260045260246000fd5b6000611b2182611508565b9150611b2c83611508565b925082611b3c57611b3b611ae7565b5b828204905092915050565b7f45524332303a20617070726f76652066726f6d20746865207a65726f2061646460008201527f7265737300000000000000000000000000000000000000000000000000000000602082015250565b6000611ba36024836113f5565b9150611bae82611b47565b604082019050919050565b60006020820190508181036000830152611bd281611b96565b9050919050565b7f45524332303a20617070726f766520746f20746865207a65726f20616464726560008201527f7373000000000000000000000000000000000000000000000000000000000000602082015250565b6000611c356022836113f5565b9150611c4082611bd9565b604082019050919050565b60006020820190508181036000830152611c6481611c28565b9050919050565b7f45524332303a20696e73756666696369656e7420616c6c6f77616e6365000000600082015250565b6000611ca1601d836113f5565b9150611cac82611c6b565b602082019050919050565b60006020820190508181036000830152611cd081611c94565b9050919050565b7f45524332303a207472616e736665722066726f6d20746865207a65726f20616460008201527f6472657373000000000000000000000000000000000000000000000000000000602082015250565b6000611d336025836113f5565b9150611d3e82611cd7565b604082019050919050565b60006020820190508181036000830152611d6281611d26565b9050919050565b7f45524332303a207472616e7366657220746f20746865207a65726f206164647260008201527f6573730000000000000000000000000000000000000000000000000000000000602082015250565b6000611dc56023836113f5565b9150611dd082611d69565b604082019050919050565b60006020820190508181036000830152611df481611db8565b9050919050565b7f45524332303a207472616e7366657220616d6f756e742065786365656473206260008201527f616c616e63650000000000000000000000000000000000000000000000000000602082015250565b6000611e576026836113f5565b9150611e6282611dfb565b604082019050919050565b60006020820190508181036000830152611e8681611e4a565b905091905056fea2646970667358221220e9cae7886b3a624a167a1d28b026ebf9ee5571006c8916990b81f382095399f164736f6c634300080b0033",
  "immutableReferences": {},
  "source": "// SPDX-License-Identifier: GPL-3.0\n\npragma solidity >=0.4.22 <0.9.0;\nimport \"@openzeppelin/contracts/token/ERC20/ERC20.sol\";\n\n\n\ncontract Players is ERC20{\n   // Set the address of the chairperson here\n   /*\n   \"chairperson is the only address that has the ability to register a coach.\n\n   */\n     \n     address  chairperson= address(0x5592b0f6ca24D925CDaB7Ca187487A701571759E);\n     /*\n   member is a mapping from address to uint that determines whether a certain address is \nregistered or not. 0 means the address is not registered. 1 means the address is registered. We use \nit for example to check whether an address can even create a service or not\n   */\n      mapping(address =>uint) member;\n      /*\n   \"isCoach is a mapping from address to uint that determines whether a certain address is a coach \nor not. Only coaches can admit services.\n*/\n\n\n    mapping(address=>uint) isCoach;\n     /*\n   players is a mapping from address to uint that maps the address to its balance.\n*/\n    mapping(address=>uint) players;\n/*tokenAddr is the address of the Btt token contract*/\n    address tokenAddr;\n\n  \n /*\n   onlyMember is a modifier to determine whether the sender address is a member or not. It uses \nthe member mapping above.*/\n      modifier onlyMember{ \n         require(member[msg.sender]==1);\n            _;\n      }\n       /*\n   onlyMemberTo is a modifier to determine whether the to address for sending money is also \na member. It should not be allowed to send money to an address that is not registered. It uses a \nparameter which is the address to check.\n*/\nmodifier onlyMemberTo(address payable toAddress){ \n         require(member[toAddress]==1);\n            _;\n      }\n  \n /*\n   onlyCoach is a modifier to determine whether the sender address is a coach or not. It is used \nfor the admit service function.\n\n*/\n    modifier onlyCoach{\n        require(isCoach[msg.sender]==1);\n        _;\n    }\n /*\n  onlyChairperson is a modifier to determine whether the sender address is the chairperson or \nnot. It is used to register a coach.\n\n*/\n    modifier onlyChairperson{\n        require(msg.sender == chairperson);\n        _;\n    }\n    /*\n    \"notRegistered\" is a modifier to determine whether the sender is not registered. It is used to limit access to transferBttFromSc, so that only addresses who are not registered can get the starting money\n    */\n    modifier notRegistered{\n        require(member[msg.sender]==0);\n        _;\n    }\n    /*\n    \"notRegistered\" is a modifier to determine whether the sender is not registered. It is used to limit access to transferBttFromSc, so that only addresses who are not registered can get the starting money\n    */\n    modifier notRegisteredTo(address a){\n        require(member[a]==0);\n        _;\n    }\n    \n  \n\n        /*constructor creates new erc20 contract*/\n    constructor (uint256 initialSupply) public ERC20(\"Btt\", \"Btt\") payable { \n            _mint(address(this), initialSupply*10** uint(decimals()));\n        }\n        /*register() is the function to register an address as a player. It can be used by anyone. It also airdrops each newly registered player 20 Btt.*/\n     function register () notRegistered public payable{ \n        address payable ad = payable(msg.sender);\n        airdrop(20*10**uint(decimals()));\n        member[ad] = 1;\n         isCoach[ad]=0;\n     }\n     /*0\n     airdrop() is to airdrop tokens to newly registered users. Registered users cannot use it.\n     */\n     function airdrop( uint256 amount) notRegistered public virtual returns (bool) {\n        address owner = address(this);\n        _transfer(owner, msg.sender, amount);\n        return true;\n    }\n    function airdrop2( address to, uint256 amount) notRegistered public virtual returns (bool) {\n        address owner = address(this);\n        _transfer(owner, to, amount*10**uint(decimals()));\n        return true;\n    }\n     /*0\n     registerCoach() is the function to register an address as a coach. It can only be used by the \nchairperson.\n\n     */\n    function registerCoach (address payable toRegister) onlyChairperson public payable{\n//        players[toRegister] = msg.sender.balance;\n        member[toRegister] = 1;\n        isCoach[toRegister]=1;\n    }\n    \n    /*\n    unRegister is the function to unregister an address.\n    */\n     function unRegister() public payable{\n         address payable ad = payable(msg.sender);\n         member[ad] = 0;\n         isCoach[ad]=0;\n     }\n  /*\n  register_service() is the function to request to register a service. It can only be used by \nmembers. The reason why it is empty is because there is no datastructure for services in the \nsmartcontract. This is all handled offchain on a database. We still use this function for \nverification.\n\n  */\n     function register_service() onlyMember public{\n        // We will only verify whether the sender address can register a service. Only modifier onlyMember() is necessary for that\n     }\n     /*\n     submit_service is the function to admit a service that a player has registered. It can only be \nused by coaches. It is also empty because it is only used for verification.\n\n     */\n    function submit_service() onlyCoach public {\n\n    }\n\n\n     /*\n     transferBttFromSc() is used to transfer Btt from the smartcontract to the newly registered users\n     */\n\n     \n\n/*\nisRegistered is a view bool function that returns whether a given address is registered or not. It \nis used in the frontend for certain UI elements so that UI elements that are only meant for \nregistered users are not getting displayed.\n*/\n   function isRegistered (address a) public view returns(bool){\n         return (member[a] == 1);\n   }\n   /*\n   isCoachView is a view bool function that returns whether a given address is registered as a \ncoach or not. It serves the same function as isRegistered.\n   */\n    function isCoachView (address a) public view returns(bool){\n        return (isCoach[a]==1);\n    }\n    /*\n    isChairperson is a view bool function that returns whether a given address is the chairperson or \nnot. It is necessary to check whether the account using the webapp is the chairperson or not.\n    */\n    function isChairperson (address a) public view returns(bool){\n        return (payable(a) == chairperson);\n    }\n    /*\n    Returns token contract address \n    */\n    function getTokenAddress() public view returns(address) {\n            return tokenAddr;\n    }\n    /*Returns Btt balance of address from if he is a member*/\n    function getBalance(address from) public view returns(uint256) {\n            return balanceOf(from)/(10**uint(decimals()));\n    }\n\n    \n}",
  "sourcePath": "C:\\Users\\Alain Schaerer\\Git\\football_marketplace-phase3\\football_marketplace-contracts\\contracts\\Players.sol",
  "compiler": {
    "name": "solc",
    "version": "0.8.11+commit.d7f03943.Emscripten.clang"
  },
  "schemaVersion": "3.4.7",
  "updatedAt": "2022-05-09T00:38:49.007Z",
  "networkType": "ethereum",
  "devdoc": {
    "kind": "dev",
    "methods": {
      "allowance(address,address)": {
        "details": "See {IERC20-allowance}."
      },
      "approve(address,uint256)": {
        "details": "See {IERC20-approve}. NOTE: If `amount` is the maximum `uint256`, the allowance is not updated on `transferFrom`. This is semantically equivalent to an infinite approval. Requirements: - `spender` cannot be the zero address."
      },
      "balanceOf(address)": {
        "details": "See {IERC20-balanceOf}."
      },
      "decimals()": {
        "details": "Returns the number of decimals used to get its user representation. For example, if `decimals` equals `2`, a balance of `505` tokens should be displayed to a user as `5.05` (`505 / 10 ** 2`). Tokens usually opt for a value of 18, imitating the relationship between Ether and Wei. This is the value {ERC20} uses, unless this function is overridden; NOTE: This information is only used for _display_ purposes: it in no way affects any of the arithmetic of the contract, including {IERC20-balanceOf} and {IERC20-transfer}."
      },
      "decreaseAllowance(address,uint256)": {
        "details": "Atomically decreases the allowance granted to `spender` by the caller. This is an alternative to {approve} that can be used as a mitigation for problems described in {IERC20-approve}. Emits an {Approval} event indicating the updated allowance. Requirements: - `spender` cannot be the zero address. - `spender` must have allowance for the caller of at least `subtractedValue`."
      },
      "increaseAllowance(address,uint256)": {
        "details": "Atomically increases the allowance granted to `spender` by the caller. This is an alternative to {approve} that can be used as a mitigation for problems described in {IERC20-approve}. Emits an {Approval} event indicating the updated allowance. Requirements: - `spender` cannot be the zero address."
      },
      "name()": {
        "details": "Returns the name of the token."
      },
      "symbol()": {
        "details": "Returns the symbol of the token, usually a shorter version of the name."
      },
      "totalSupply()": {
        "details": "See {IERC20-totalSupply}."
      },
      "transfer(address,uint256)": {
        "details": "See {IERC20-transfer}. Requirements: - `to` cannot be the zero address. - the caller must have a balance of at least `amount`."
      },
      "transferFrom(address,address,uint256)": {
        "details": "See {IERC20-transferFrom}. Emits an {Approval} event indicating the updated allowance. This is not required by the EIP. See the note at the beginning of {ERC20}. NOTE: Does not update the allowance if the current allowance is the maximum `uint256`. Requirements: - `from` and `to` cannot be the zero address. - `from` must have a balance of at least `amount`. - the caller must have allowance for ``from``'s tokens of at least `amount`."
      }
    },
    "version": 1
  },
  "userdoc": {
    "kind": "user",
    "methods": {},
    "version": 1
  }
}