{
  "contractName": "Players",
  "abi": [
    {
      "inputs": [],
      "stateMutability": "payable",
      "type": "constructor",
      "payable": true
    },
    {
      "inputs": [],
      "name": "register",
      "outputs": [],
      "stateMutability": "payable",
      "type": "function",
      "payable": true
    },
    {
      "inputs": [
        {
          "internalType": "address payable",
          "name": "toRegister",
          "type": "address"
        }
      ],
      "name": "registerCoach",
      "outputs": [],
      "stateMutability": "payable",
      "type": "function",
      "payable": true
    },
    {
      "inputs": [],
      "name": "unRegister",
      "outputs": [],
      "stateMutability": "payable",
      "type": "function",
      "payable": true
    },
    {
      "inputs": [],
      "name": "register_service",
      "outputs": [],
      "stateMutability": "nonpayable",
      "type": "function"
    },
    {
      "inputs": [],
      "name": "submit_service",
      "outputs": [],
      "stateMutability": "nonpayable",
      "type": "function"
    },
    {
      "inputs": [
        {
          "internalType": "address payable",
          "name": "toAddress",
          "type": "address"
        }
      ],
      "name": "sendMoney",
      "outputs": [],
      "stateMutability": "payable",
      "type": "function",
      "payable": true
    },
    {
      "inputs": [
        {
          "internalType": "address",
          "name": "a",
          "type": "address"
        }
      ],
      "name": "isRegistered",
      "outputs": [
        {
          "internalType": "bool",
          "name": "",
          "type": "bool"
        }
      ],
      "stateMutability": "view",
      "type": "function",
      "constant": true
    },
    {
      "inputs": [
        {
          "internalType": "address",
          "name": "a",
          "type": "address"
        }
      ],
      "name": "isCoachView",
      "outputs": [
        {
          "internalType": "bool",
          "name": "",
          "type": "bool"
        }
      ],
      "stateMutability": "view",
      "type": "function",
      "constant": true
    },
    {
      "inputs": [
        {
          "internalType": "address",
          "name": "a",
          "type": "address"
        }
      ],
      "name": "print",
      "outputs": [],
      "stateMutability": "view",
      "type": "function",
      "constant": true
    }
  ],
  "bytecode": "0x6080604052336000806101000a81548173ffffffffffffffffffffffffffffffffffffffff021916908373ffffffffffffffffffffffffffffffffffffffff1602179055503373ffffffffffffffffffffffffffffffffffffffff1631600360008060009054906101000a900473ffffffffffffffffffffffffffffffffffffffff1673ffffffffffffffffffffffffffffffffffffffff1673ffffffffffffffffffffffffffffffffffffffff16815260200190815260200160002081905550610a13806100cf6000396000f3fe6080604052600436106100865760003560e01c8063a41f23f911610059578063a41f23f9146100e4578063c3c5a54714610100578063db643ae21461013d578063f060769714610154578063fe73b5b31461016b57610086565b80631aa3a0081461008b57806324d427a91461009557806326d7b3b4146100be578063338ccd78146100c8575b600080fd5b6100936101a8565b005b3480156100a157600080fd5b506100bc60048036038101906100b7919061084c565b610294565b005b6100c66102dc565b005b6100e260048036038101906100dd91906108b7565b61036e565b005b6100fe60048036038101906100f991906108b7565b610578565b005b34801561010c57600080fd5b506101276004803603810190610122919061084c565b6106b7565b60405161013491906108ff565b60405180910390f35b34801561014957600080fd5b50610152610702565b005b34801561016057600080fd5b5061016961074f565b005b34801561017757600080fd5b50610192600480360381019061018d919061084c565b61079d565b60405161019f91906108ff565b60405180910390f35b60003390503373ffffffffffffffffffffffffffffffffffffffff1631600360008373ffffffffffffffffffffffffffffffffffffffff1673ffffffffffffffffffffffffffffffffffffffff1681526020019081526020016000208190555060018060008373ffffffffffffffffffffffffffffffffffffffff1673ffffffffffffffffffffffffffffffffffffffff168152602001908152602001600020819055506000600260008373ffffffffffffffffffffffffffffffffffffffff1673ffffffffffffffffffffffffffffffffffffffff1681526020019081526020016000208190555050565b6000600360008373ffffffffffffffffffffffffffffffffffffffff1673ffffffffffffffffffffffffffffffffffffffff1681526020019081526020016000205490505050565b60003390506000600160008373ffffffffffffffffffffffffffffffffffffffff1673ffffffffffffffffffffffffffffffffffffffff168152602001908152602001600020819055506000600260008373ffffffffffffffffffffffffffffffffffffffff1673ffffffffffffffffffffffffffffffffffffffff1681526020019081526020016000208190555050565b60018060003373ffffffffffffffffffffffffffffffffffffffff1673ffffffffffffffffffffffffffffffffffffffff16815260200190815260200160002054146103b957600080fd5b8060018060008373ffffffffffffffffffffffffffffffffffffffff1673ffffffffffffffffffffffffffffffffffffffff168152602001908152602001600020541461040557600080fd5b6000339050600034905080600360008673ffffffffffffffffffffffffffffffffffffffff1673ffffffffffffffffffffffffffffffffffffffff1681526020019081526020016000205461045a9190610953565b600360008673ffffffffffffffffffffffffffffffffffffffff1673ffffffffffffffffffffffffffffffffffffffff1681526020019081526020016000208190555080600360008473ffffffffffffffffffffffffffffffffffffffff1673ffffffffffffffffffffffffffffffffffffffff168152602001908152602001600020546104e891906109a9565b600360008473ffffffffffffffffffffffffffffffffffffffff1673ffffffffffffffffffffffffffffffffffffffff168152602001908152602001600020819055508373ffffffffffffffffffffffffffffffffffffffff166108fc829081150290604051600060405180830381858888f19350505050158015610571573d6000803e3d6000fd5b5050505050565b60008054906101000a900473ffffffffffffffffffffffffffffffffffffffff1673ffffffffffffffffffffffffffffffffffffffff163373ffffffffffffffffffffffffffffffffffffffff16146105d057600080fd5b3373ffffffffffffffffffffffffffffffffffffffff1631600360008373ffffffffffffffffffffffffffffffffffffffff1673ffffffffffffffffffffffffffffffffffffffff1681526020019081526020016000208190555060018060008373ffffffffffffffffffffffffffffffffffffffff1673ffffffffffffffffffffffffffffffffffffffff168152602001908152602001600020819055506001600260008373ffffffffffffffffffffffffffffffffffffffff1673ffffffffffffffffffffffffffffffffffffffff1681526020019081526020016000208190555050565b600060018060008473ffffffffffffffffffffffffffffffffffffffff1673ffffffffffffffffffffffffffffffffffffffff16815260200190815260200160002054149050919050565b60018060003373ffffffffffffffffffffffffffffffffffffffff1673ffffffffffffffffffffffffffffffffffffffff168152602001908152602001600020541461074d57600080fd5b565b6001600260003373ffffffffffffffffffffffffffffffffffffffff1673ffffffffffffffffffffffffffffffffffffffff168152602001908152602001600020541461079b57600080fd5b565b60006001600260008473ffffffffffffffffffffffffffffffffffffffff1673ffffffffffffffffffffffffffffffffffffffff16815260200190815260200160002054149050919050565b600080fd5b600073ffffffffffffffffffffffffffffffffffffffff82169050919050565b6000610819826107ee565b9050919050565b6108298161080e565b811461083457600080fd5b50565b60008135905061084681610820565b92915050565b600060208284031215610862576108616107e9565b5b600061087084828501610837565b91505092915050565b6000610884826107ee565b9050919050565b61089481610879565b811461089f57600080fd5b50565b6000813590506108b18161088b565b92915050565b6000602082840312156108cd576108cc6107e9565b5b60006108db848285016108a2565b91505092915050565b60008115159050919050565b6108f9816108e4565b82525050565b600060208201905061091460008301846108f0565b92915050565b6000819050919050565b7f4e487b7100000000000000000000000000000000000000000000000000000000600052601160045260246000fd5b600061095e8261091a565b91506109698361091a565b9250827fffffffffffffffffffffffffffffffffffffffffffffffffffffffffffffffff0382111561099e5761099d610924565b5b828201905092915050565b60006109b48261091a565b91506109bf8361091a565b9250828210156109d2576109d1610924565b5b82820390509291505056fea26469706673582212209d1bacdad49314674cc529a738259200646a91cb1b773ccd5922d45537b4b2c464736f6c634300080b0033",
  "immutableReferences": {},
  "source": "// SPDX-License-Identifier: GPL-3.0\r\n\r\npragma solidity >=0.4.22 <0.9.0;\r\n\r\ncontract Players{\r\n     address payable chairperson;\r\n      mapping(address =>uint) member;\r\n    mapping(address=>uint) isCoach;\r\n    mapping(address=>uint) players;\r\n  \r\n\r\n      modifier onlyMember{ \r\n         require(member[msg.sender]==1);\r\n            _;\r\n      }\r\n      // checks whether the address that the sender wants to send money to is also a member\r\n      modifier onlyMemberTo(address payable toAddress){ \r\n         require(member[toAddress]==1);\r\n            _;\r\n      }\r\n  \r\n\r\n    modifier onlyCoach{\r\n        require(isCoach[msg.sender]==1);\r\n        _;\r\n    }\r\n\r\n    modifier onlyChairperson{\r\n        require(msg.sender == chairperson);\r\n        _;\r\n    }\r\n\r\n    constructor () public payable { \r\n         chairperson= payable(msg.sender);\r\n         \r\n         players[chairperson] = msg.sender.balance;\r\n        // chairperson.transfer(msg.value);\r\n         //console.log(\"System has been initiated with chairperson: \", chairperson, \" with balance \", msg.sender.balance);\r\n        }\r\n     function register () public payable{ \r\n        address payable ad = payable(msg.sender);\r\n        players[ad] = msg.sender.balance;\r\n        member[ad] = 1;\r\n         isCoach[ad]=0;\r\n     }\r\n    function registerCoach (address payable toRegister) onlyChairperson public payable{\r\n        players[toRegister] = msg.sender.balance;\r\n        member[toRegister] = 1;\r\n        isCoach[toRegister]=1;\r\n    }\r\n     function unRegister() public payable{\r\n         address payable ad = payable(msg.sender);\r\n         member[ad] = 0;\r\n         isCoach[ad]=0;\r\n     }\r\n   //   function register_service(service memory s, string memory playerName) onlyMember beYourSelf(playerName) public{\r\n   //      address ad = playerToAdress[playerName];\r\n   //      players[ad].services.push(s);\r\n   //      console.log(\"Address \", ad, \" registred the service called \", s.name);\r\n   //   }\r\n     function register_service() onlyMember public{\r\n        // We will only verify whether the sender address can register a service. Only modifier onlyMember() is necessary for that\r\n     }\r\n    function submit_service() onlyCoach public {\r\n\r\n    }\r\n//     function unRegisterService() onlyMember public {\r\n//         //same\r\n//     }\r\n\r\n//      function editService() onlyMember public {\r\n//         //same\r\n//      }\r\n//      function rateService() onlyMember public {\r\n//         //same\r\n//\r\n//      }\r\n      \r\n     function sendMoney(address payable toAddress) onlyMember onlyMemberTo(toAddress) payable public {\r\n         address fromAddress = msg.sender;\r\n         uint amt = msg.value;\r\n         players[toAddress] = players[toAddress] + amt;\r\n         players[fromAddress] = players[fromAddress] - amt;\r\n         toAddress.transfer(amt); \r\n     }\r\n\r\n   function isRegistered (address a) public view returns(bool){\r\n         return (member[a] == 1);\r\n   }\r\n    function isCoachView (address a) public view returns(bool){\r\n        return (isCoach[a]==1);\r\n    }\r\n\r\n    function print(address a) public view {\r\n        uint p = players[a];\r\n        //console.log(\"Player \",a, \" has a balance of \", p);\r\n    }\r\n    \r\n}",
  "sourcePath": "C:\\Users\\Alain Schaerer\\Git\\football_marketplace - Copy\\football_marketplace-contracts\\contracts\\Players.sol",
  "compiler": {
    "name": "solc",
    "version": "0.8.11+commit.d7f03943.Emscripten.clang"
  },
  "schemaVersion": "3.4.5",
  "updatedAt": "2022-04-06T23:25:15.984Z",
  "networkType": "ethereum",
  "devdoc": {
    "kind": "dev",
    "methods": {},
    "version": 1
  },
  "userdoc": {
    "kind": "user",
    "methods": {},
    "version": 1
  }
}